{
  "contractName": "AccessControl",
  "abi": [
    {
      "inputs": [],
      "name": "DEFAULT_ADMIN_ROLE",
      "outputs": [
        {
          "internalType": "bytes32",
          "name": "",
          "type": "bytes32"
        }
      ],
      "stateMutability": "view",
      "type": "function"
    },
    {
      "inputs": [],
      "name": "ORACLE_MANAGER_ROLE",
      "outputs": [
        {
          "internalType": "bytes32",
          "name": "",
          "type": "bytes32"
        }
      ],
      "stateMutability": "view",
      "type": "function"
    },
    {
      "inputs": [
        {
          "internalType": "bytes32",
          "name": "role",
          "type": "bytes32"
        }
      ],
      "name": "getRoleAdmin",
      "outputs": [
        {
          "internalType": "bytes32",
          "name": "",
          "type": "bytes32"
        }
      ],
      "stateMutability": "view",
      "type": "function"
    },
    {
      "inputs": [
        {
          "internalType": "bytes32",
          "name": "role",
          "type": "bytes32"
        },
        {
          "internalType": "address",
          "name": "account",
          "type": "address"
        }
      ],
      "name": "hasRole",
      "outputs": [
        {
          "internalType": "bool",
          "name": "",
          "type": "bool"
        }
      ],
      "stateMutability": "view",
      "type": "function"
    },
    {
      "inputs": [
        {
          "internalType": "bytes32",
          "name": "role",
          "type": "bytes32"
        },
        {
          "internalType": "address",
          "name": "account",
          "type": "address"
        }
      ],
      "name": "revokeRole",
      "outputs": [],
      "stateMutability": "nonpayable",
      "type": "function"
    }
  ],
  "bytecode": "0x608060405234801561001057600080fd5b50610aa1806100206000396000f3fe608060405234801561001057600080fd5b50600436106100575760003560e01c8063248a9ca31461005c57806391d148541461008c578063a217fddf146100bc578063bfc69e1c146100da578063d547741f146100f8575b600080fd5b61007660048036038101906100719190610589565b610114565b604051610083919061073c565b60405180910390f35b6100a660048036038101906100a191906105b6565b610133565b6040516100b39190610721565b60405180910390f35b6100c461019d565b6040516100d1919061073c565b60405180910390f35b6100e26101c1565b6040516100ef919061073c565b60405180910390f35b610112600480360381019061010d91906105b6565b6101e5565b005b6000806000838152602001908152602001600020600101549050919050565b600080600084815260200190815260200160002060000160008373ffffffffffffffffffffffffffffffffffffffff1673ffffffffffffffffffffffffffffffffffffffff16815260200190815260200160002060009054906101000a900460ff16905092915050565b7f1effbbff9c66c5e59634f24fe842750c60d18891155c32dd155fc2d661a4c86d81565b7fced6982f480260bdd8ad5cb18ff2854f0306d78d904ad6cc107e8f3a0f526c1881565b6101ee82610114565b6101f88133610207565b61020283836102a4565b505050565b6102118282610133565b6102a0576102368173ffffffffffffffffffffffffffffffffffffffff166014610323565b6102448360001c6020610323565b6040516020016102559291906106e7565b6040516020818303038152906040526040517f08c379a00000000000000000000000000000000000000000000000000000000081526004016102979190610757565b60405180910390fd5b5050565b6102ae8282610133565b1561031f57600080600084815260200190815260200160002060000160008373ffffffffffffffffffffffffffffffffffffffff1673ffffffffffffffffffffffffffffffffffffffff16815260200190815260200160002060006101000a81548160ff0219169083151502179055505b5050565b6060600060028360026103369190610816565b61034091906107c0565b67ffffffffffffffff8111156103595761035861097d565b5b6040519080825280601f01601f19166020018201604052801561038b5781602001600182028036833780820191505090505b5090507f3000000000000000000000000000000000000000000000000000000000000000816000815181106103c3576103c261094e565b5b60200101907effffffffffffffffffffffffffffffffffffffffffffffffffffffffffffff1916908160001a9053507f7800000000000000000000000000000000000000000000000000000000000000816001815181106104275761042661094e565b5b60200101907effffffffffffffffffffffffffffffffffffffffffffffffffffffffffffff1916908160001a905350600060018460026104679190610816565b61047191906107c0565b90505b6001811115610511577f3031323334353637383961626364656600000000000000000000000000000000600f8616601081106104b3576104b261094e565b5b1a60f81b8282815181106104ca576104c961094e565b5b60200101907effffffffffffffffffffffffffffffffffffffffffffffffffffffffffffff1916908160001a905350600485901c94508061050a906108f5565b9050610474565b5060008414610555576040517f08c379a000000000000000000000000000000000000000000000000000000000815260040161054c90610779565b60405180910390fd5b8091505092915050565b60008135905061056e81610a3d565b92915050565b60008135905061058381610a54565b92915050565b60006020828403121561059f5761059e6109ac565b5b60006105ad84828501610574565b91505092915050565b600080604083850312156105cd576105cc6109ac565b5b60006105db85828601610574565b92505060206105ec8582860161055f565b9150509250929050565b6105ff81610882565b82525050565b61060e8161088e565b82525050565b600061061f82610799565b61062981856107a4565b93506106398185602086016108c2565b610642816109b1565b840191505092915050565b600061065882610799565b61066281856107b5565b93506106728185602086016108c2565b80840191505092915050565b600061068b6020836107a4565b9150610696826109c2565b602082019050919050565b60006106ae6017836107b5565b91506106b9826109eb565b601782019050919050565b60006106d16011836107b5565b91506106dc82610a14565b601182019050919050565b60006106f2826106a1565b91506106fe828561064d565b9150610709826106c4565b9150610715828461064d565b91508190509392505050565b600060208201905061073660008301846105f6565b92915050565b60006020820190506107516000830184610605565b92915050565b600060208201905081810360008301526107718184610614565b905092915050565b600060208201905081810360008301526107928161067e565b9050919050565b600081519050919050565b600082825260208201905092915050565b600081905092915050565b60006107cb826108b8565b91506107d6836108b8565b9250827fffffffffffffffffffffffffffffffffffffffffffffffffffffffffffffffff0382111561080b5761080a61091f565b5b828201905092915050565b6000610821826108b8565b915061082c836108b8565b9250817fffffffffffffffffffffffffffffffffffffffffffffffffffffffffffffffff04831182151516156108655761086461091f565b5b828202905092915050565b600061087b82610898565b9050919050565b60008115159050919050565b6000819050919050565b600073ffffffffffffffffffffffffffffffffffffffff82169050919050565b6000819050919050565b60005b838110156108e05780820151818401526020810190506108c5565b838111156108ef576000848401525b50505050565b6000610900826108b8565b915060008214156109145761091361091f565b5b600182039050919050565b7f4e487b7100000000000000000000000000000000000000000000000000000000600052601160045260246000fd5b7f4e487b7100000000000000000000000000000000000000000000000000000000600052603260045260246000fd5b7f4e487b7100000000000000000000000000000000000000000000000000000000600052604160045260246000fd5b600080fd5b6000601f19601f8301169050919050565b7f537472696e67733a20686578206c656e67746820696e73756666696369656e74600082015250565b7f416363657373436f6e74726f6c3a206163636f756e7420000000000000000000600082015250565b7f206973206d697373696e6720726f6c6520000000000000000000000000000000600082015250565b610a4681610870565b8114610a5157600080fd5b50565b610a5d8161088e565b8114610a6857600080fd5b5056fea26469706673582212208657ee960f40225302b481298b3fa16cd82e1ba16962adf4bba76c8ebaedf9e064736f6c63430008070033",
  "immutableReferences": {},
  "source": "// SPDX-License-Identifier: GPL-3.0-or-later\npragma solidity >=0.6.0;\nimport \"@openzeppelin/contracts/utils/Strings.sol\";\n\ncontract AccessControl {\n    struct RoleData {\n        mapping(address => bool) members;\n        bytes32 adminRole;\n    }\n\n    mapping(bytes32 => RoleData) private _roles;\n    \n    bytes32 public constant ORACLE_MANAGER_ROLE = keccak256(\"ORACLE_MANAGER_ROLE\");\n    bytes32 public constant DEFAULT_ADMIN_ROLE = keccak256(\"DEFAULT_ADMIN_ROLE\");\n    \n    \n    modifier onlyRole(bytes32 role) {\n        _checkRole(role, msg.sender);\n        _;\n    }\n    \n    function getRoleAdmin(bytes32 role) public view returns (bytes32) {\n        return _roles[role].adminRole;\n    }\n    \n    function _checkRole(bytes32 role, address account) internal view {\n        if (!hasRole(role, account)) {\n            revert(\n                string(\n                    abi.encodePacked(\n                        \"AccessControl: account \",\n                        Strings.toHexString(uint160(account), 20),\n                        \" is missing role \",\n                        Strings.toHexString(uint256(role), 32)\n                    )\n                )\n            );\n        }\n    }\n    \n    \n    function hasRole(bytes32 role, address account) public view returns (bool) {\n        return _roles[role].members[account];\n    }\n    \n    function _setupRole(bytes32 role, address account) internal virtual {\n        _grantRole(role, account);\n    }\n    \n    function _grantRole(bytes32 role, address account) internal virtual {\n        if (!hasRole(role, account)) {\n            _roles[role].members[account] = true;\n        }\n    }\n    function revokeRole(bytes32 role, address account) public virtual onlyRole(getRoleAdmin(role)) {\n        _revokeRole(role, account);\n    }\n    function _revokeRole(bytes32 role, address account) internal virtual {\n        if (hasRole(role, account)) {\n            _roles[role].members[account] = false;\n        }\n    }\n}",
  "sourcePath": "/mnt/storage/20_projects/50_oracle_amir/new research/aglive_oracle/contracts/AccessControl.sol",
  "compiler": {
    "name": "solc",
    "version": "0.8.7+commit.e28d00a7.Emscripten.clang"
  },
  "schemaVersion": "3.4.2",
  "updatedAt": "2021-10-11T16:47:19.347Z",
  "devdoc": {
    "kind": "dev",
    "methods": {},
    "version": 1
  },
  "userdoc": {
    "kind": "user",
    "methods": {},
    "version": 1
  }
}