{
  "contractName": "Oracle",
  "abi": [
    {
      "inputs": [],
      "stateMutability": "nonpayable",
      "type": "constructor"
    },
    {
      "anonymous": false,
      "inputs": [
        {
          "indexed": true,
          "internalType": "address",
          "name": "oracler",
          "type": "address"
        },
        {
          "indexed": false,
          "internalType": "bool",
          "name": "result",
          "type": "bool"
        }
      ],
      "name": "oracleIsActivated",
      "type": "event"
    },
    {
      "anonymous": false,
      "inputs": [
        {
          "indexed": true,
          "internalType": "address",
          "name": "oracler",
          "type": "address"
        },
        {
          "indexed": true,
          "internalType": "uint256",
          "name": "oraclerId",
          "type": "uint256"
        }
      ],
      "name": "oracleIsCreated",
      "type": "event"
    },
    {
      "anonymous": false,
      "inputs": [
        {
          "indexed": true,
          "internalType": "address",
          "name": "oracler",
          "type": "address"
        },
        {
          "indexed": false,
          "internalType": "bool",
          "name": "result",
          "type": "bool"
        }
      ],
      "name": "oracleIsDeactivated",
      "type": "event"
    },
    {
      "anonymous": false,
      "inputs": [
        {
          "indexed": true,
          "internalType": "address",
          "name": "oracler",
          "type": "address"
        },
        {
          "indexed": false,
          "internalType": "bool",
          "name": "result",
          "type": "bool"
        }
      ],
      "name": "oracleIsDeleted",
      "type": "event"
    },
    {
      "anonymous": false,
      "inputs": [
        {
          "indexed": true,
          "internalType": "address",
          "name": "oracler",
          "type": "address"
        },
        {
          "indexed": false,
          "internalType": "uint256",
          "name": "oraclerId",
          "type": "uint256"
        }
      ],
      "name": "oracleIsUnregistered",
      "type": "event"
    },
    {
      "anonymous": false,
      "inputs": [
        {
          "indexed": true,
          "internalType": "address",
          "name": "oraclerAddress",
          "type": "address"
        },
        {
          "indexed": false,
          "internalType": "bytes32",
          "name": "value",
          "type": "bytes32"
        }
      ],
      "name": "oracleNameIsChanged",
      "type": "event"
    },
    {
      "anonymous": false,
      "inputs": [
        {
          "indexed": true,
          "internalType": "address",
          "name": "oracler",
          "type": "address"
        },
        {
          "indexed": false,
          "internalType": "uint256",
          "name": "value",
          "type": "uint256"
        }
      ],
      "name": "oraclePopularityIsChanged",
      "type": "event"
    },
    {
      "inputs": [],
      "name": "DEFAULT_ADMIN_ROLE",
      "outputs": [
        {
          "internalType": "bytes32",
          "name": "",
          "type": "bytes32"
        }
      ],
      "stateMutability": "view",
      "type": "function"
    },
    {
      "inputs": [],
      "name": "ORACLE_MANAGER_ROLE",
      "outputs": [
        {
          "internalType": "bytes32",
          "name": "",
          "type": "bytes32"
        }
      ],
      "stateMutability": "view",
      "type": "function"
    },
    {
      "inputs": [
        {
          "internalType": "bytes32",
          "name": "role",
          "type": "bytes32"
        }
      ],
      "name": "getRoleAdmin",
      "outputs": [
        {
          "internalType": "bytes32",
          "name": "",
          "type": "bytes32"
        }
      ],
      "stateMutability": "view",
      "type": "function"
    },
    {
      "inputs": [
        {
          "internalType": "bytes32",
          "name": "role",
          "type": "bytes32"
        },
        {
          "internalType": "address",
          "name": "account",
          "type": "address"
        }
      ],
      "name": "hasRole",
      "outputs": [
        {
          "internalType": "bool",
          "name": "",
          "type": "bool"
        }
      ],
      "stateMutability": "view",
      "type": "function"
    },
    {
      "inputs": [
        {
          "internalType": "bytes32",
          "name": "role",
          "type": "bytes32"
        },
        {
          "internalType": "address",
          "name": "account",
          "type": "address"
        }
      ],
      "name": "revokeRole",
      "outputs": [],
      "stateMutability": "nonpayable",
      "type": "function"
    },
    {
      "inputs": [
        {
          "internalType": "uint256",
          "name": "value",
          "type": "uint256"
        }
      ],
      "name": "setStakeThreshold",
      "outputs": [],
      "stateMutability": "nonpayable",
      "type": "function"
    },
    {
      "inputs": [],
      "name": "getStakeThreshold",
      "outputs": [
        {
          "internalType": "uint256",
          "name": "value",
          "type": "uint256"
        }
      ],
      "stateMutability": "view",
      "type": "function"
    },
    {
      "inputs": [],
      "name": "getOraclersSet",
      "outputs": [
        {
          "components": [
            {
              "internalType": "bytes32",
              "name": "name",
              "type": "bytes32"
            },
            {
              "internalType": "address",
              "name": "owner",
              "type": "address"
            },
            {
              "internalType": "string",
              "name": "api",
              "type": "string"
            },
            {
              "internalType": "uint256",
              "name": "popularity",
              "type": "uint256"
            },
            {
              "internalType": "uint256",
              "name": "numericPopularity",
              "type": "uint256"
            },
            {
              "internalType": "bool",
              "name": "registered",
              "type": "bool"
            },
            {
              "internalType": "uint256",
              "name": "balance",
              "type": "uint256"
            },
            {
              "internalType": "uint256",
              "name": "oraclerId",
              "type": "uint256"
            }
          ],
          "internalType": "struct Oracle.Oraclers[]",
          "name": "",
          "type": "tuple[]"
        }
      ],
      "stateMutability": "view",
      "type": "function"
    },
    {
      "inputs": [
        {
          "internalType": "bytes32",
          "name": "name",
          "type": "bytes32"
        },
        {
          "internalType": "address",
          "name": "owner",
          "type": "address"
        },
        {
          "internalType": "string",
          "name": "api",
          "type": "string"
        }
      ],
      "name": "createOracle",
      "outputs": [],
      "stateMutability": "nonpayable",
      "type": "function"
    },
    {
      "inputs": [
        {
          "internalType": "address",
          "name": "oraclerAddress",
          "type": "address"
        }
      ],
      "name": "deactivateOraclers",
      "outputs": [
        {
          "internalType": "uint256",
          "name": "_reply",
          "type": "uint256"
        }
      ],
      "stateMutability": "nonpayable",
      "type": "function"
    },
    {
      "inputs": [
        {
          "internalType": "address",
          "name": "oraclerAddress",
          "type": "address"
        }
      ],
      "name": "activateOraclers",
      "outputs": [
        {
          "internalType": "uint256",
          "name": "reply",
          "type": "uint256"
        }
      ],
      "stateMutability": "nonpayable",
      "type": "function"
    },
    {
      "inputs": [
        {
          "internalType": "address",
          "name": "oraclerAddress",
          "type": "address"
        }
      ],
      "name": "deleteOraclers",
      "outputs": [
        {
          "internalType": "uint256",
          "name": "_reply",
          "type": "uint256"
        }
      ],
      "stateMutability": "nonpayable",
      "type": "function"
    },
    {
      "inputs": [
        {
          "internalType": "address",
          "name": "oraclerAddress",
          "type": "address"
        },
        {
          "internalType": "uint256",
          "name": "index",
          "type": "uint256"
        },
        {
          "internalType": "uint256",
          "name": "value",
          "type": "uint256"
        },
        {
          "internalType": "uint256",
          "name": "numericValue",
          "type": "uint256"
        }
      ],
      "name": "changeOraclerPopularity",
      "outputs": [
        {
          "internalType": "bool",
          "name": "",
          "type": "bool"
        }
      ],
      "stateMutability": "nonpayable",
      "type": "function"
    },
    {
      "inputs": [
        {
          "internalType": "address",
          "name": "oraclerAddress",
          "type": "address"
        },
        {
          "internalType": "uint256",
          "name": "value",
          "type": "uint256"
        }
      ],
      "name": "increaseOraclerBalance",
      "outputs": [
        {
          "internalType": "bool",
          "name": "",
          "type": "bool"
        }
      ],
      "stateMutability": "nonpayable",
      "type": "function"
    },
    {
      "inputs": [
        {
          "internalType": "address",
          "name": "oraclerAddress",
          "type": "address"
        },
        {
          "internalType": "uint256",
          "name": "value",
          "type": "uint256"
        }
      ],
      "name": "decreaseOraclerBalance",
      "outputs": [
        {
          "internalType": "bool",
          "name": "",
          "type": "bool"
        }
      ],
      "stateMutability": "nonpayable",
      "type": "function"
    },
    {
      "inputs": [
        {
          "internalType": "address payable",
          "name": "oraclerAddress",
          "type": "address"
        },
        {
          "internalType": "uint256",
          "name": "value",
          "type": "uint256"
        }
      ],
      "name": "manageOraclerBalance",
      "outputs": [],
      "stateMutability": "payable",
      "type": "function"
    },
    {
      "inputs": [
        {
          "internalType": "address",
          "name": "oraclerAddress",
          "type": "address"
        },
        {
          "internalType": "bytes32",
          "name": "value",
          "type": "bytes32"
        }
      ],
      "name": "changeOraclerName",
      "outputs": [
        {
          "internalType": "bool",
          "name": "",
          "type": "bool"
        }
      ],
      "stateMutability": "nonpayable",
      "type": "function"
    },
    {
      "inputs": [
        {
          "internalType": "uint256",
          "name": "_index",
          "type": "uint256"
        }
      ],
      "name": "getOraclerPopularity",
      "outputs": [
        {
          "internalType": "uint256",
          "name": "_popularity",
          "type": "uint256"
        }
      ],
      "stateMutability": "view",
      "type": "function"
    },
    {
      "inputs": [
        {
          "internalType": "uint256",
          "name": "_index",
          "type": "uint256"
        }
      ],
      "name": "getOraclerNumericPopularity",
      "outputs": [
        {
          "internalType": "uint256",
          "name": "_popularity",
          "type": "uint256"
        }
      ],
      "stateMutability": "view",
      "type": "function"
    },
    {
      "inputs": [
        {
          "internalType": "uint256",
          "name": "_index",
          "type": "uint256"
        }
      ],
      "name": "getOraclerAddress",
      "outputs": [
        {
          "internalType": "address",
          "name": "_address",
          "type": "address"
        }
      ],
      "stateMutability": "view",
      "type": "function"
    },
    {
      "inputs": [
        {
          "internalType": "uint256",
          "name": "_index",
          "type": "uint256"
        }
      ],
      "name": "getOraclerId",
      "outputs": [
        {
          "internalType": "uint256",
          "name": "_id",
          "type": "uint256"
        }
      ],
      "stateMutability": "view",
      "type": "function"
    },
    {
      "inputs": [
        {
          "internalType": "address",
          "name": "oraclerAddress",
          "type": "address"
        }
      ],
      "name": "isOraclerRegistered",
      "outputs": [
        {
          "internalType": "bool",
          "name": "",
          "type": "bool"
        }
      ],
      "stateMutability": "view",
      "type": "function"
    },
    {
      "inputs": [
        {
          "internalType": "address",
          "name": "oraclerAddress",
          "type": "address"
        }
      ],
      "name": "isOraclerActive",
      "outputs": [
        {
          "internalType": "bool",
          "name": "",
          "type": "bool"
        }
      ],
      "stateMutability": "view",
      "type": "function"
    },
    {
      "inputs": [],
      "name": "getCountRegisteredOraclers",
      "outputs": [
        {
          "internalType": "uint256",
          "name": "",
          "type": "uint256"
        }
      ],
      "stateMutability": "view",
      "type": "function"
    },
    {
      "inputs": [
        {
          "internalType": "address",
          "name": "oracleAddress",
          "type": "address"
        }
      ],
      "name": "getOraclerIndex",
      "outputs": [
        {
          "internalType": "uint256",
          "name": "",
          "type": "uint256"
        }
      ],
      "stateMutability": "view",
      "type": "function"
    },
    {
      "inputs": [
        {
          "internalType": "uint256[]",
          "name": "index",
          "type": "uint256[]"
        }
      ],
      "name": "registeredOraclers",
      "outputs": [
        {
          "internalType": "bytes32[]",
          "name": "name",
          "type": "bytes32[]"
        },
        {
          "internalType": "address[]",
          "name": "owners",
          "type": "address[]"
        },
        {
          "internalType": "uint256[]",
          "name": "popularity",
          "type": "uint256[]"
        },
        {
          "internalType": "bool[]",
          "name": "registered",
          "type": "bool[]"
        },
        {
          "internalType": "uint256[]",
          "name": "balance",
          "type": "uint256[]"
        },
        {
          "internalType": "uint256[]",
          "name": "oraclerIds",
          "type": "uint256[]"
        }
      ],
      "stateMutability": "view",
      "type": "function"
    },
    {
      "inputs": [
        {
          "internalType": "address",
          "name": "_sender",
          "type": "address"
        }
      ],
      "name": "isRegistered",
      "outputs": [
        {
          "internalType": "bool",
          "name": "",
          "type": "bool"
        }
      ],
      "stateMutability": "view",
      "type": "function"
    },
    {
      "inputs": [
        {
          "internalType": "uint256[]",
          "name": "index",
          "type": "uint256[]"
        }
      ],
      "name": "sortOracler",
      "outputs": [
        {
          "internalType": "bytes32[]",
          "name": "name",
          "type": "bytes32[]"
        },
        {
          "internalType": "address[]",
          "name": "owners",
          "type": "address[]"
        },
        {
          "internalType": "uint256[]",
          "name": "popularity",
          "type": "uint256[]"
        },
        {
          "internalType": "bool[]",
          "name": "registered",
          "type": "bool[]"
        },
        {
          "internalType": "uint256[]",
          "name": "balance",
          "type": "uint256[]"
        },
        {
          "internalType": "uint256[]",
          "name": "oraclerIds",
          "type": "uint256[]"
        }
      ],
      "stateMutability": "view",
      "type": "function"
    },
    {
      "inputs": [
        {
          "internalType": "uint256",
          "name": "_sortedOraclersIndex",
          "type": "uint256"
        }
      ],
      "name": "getOraclersMedian",
      "outputs": [
        {
          "internalType": "bytes32",
          "name": "name",
          "type": "bytes32"
        },
        {
          "internalType": "address",
          "name": "owners",
          "type": "address"
        },
        {
          "internalType": "uint256",
          "name": "popularity",
          "type": "uint256"
        },
        {
          "internalType": "bool",
          "name": "registered",
          "type": "bool"
        },
        {
          "internalType": "uint256",
          "name": "balance",
          "type": "uint256"
        },
        {
          "internalType": "uint256",
          "name": "id",
          "type": "uint256"
        }
      ],
      "stateMutability": "view",
      "type": "function"
    },
    {
      "inputs": [],
      "name": "getMedianOracler",
      "outputs": [
        {
          "internalType": "uint256",
          "name": "popularity",
          "type": "uint256"
        }
      ],
      "stateMutability": "view",
      "type": "function"
    },
    {
      "inputs": [],
      "name": "transferStake",
      "outputs": [],
      "stateMutability": "payable",
      "type": "function"
    },
    {
      "inputs": [
        {
          "internalType": "address",
          "name": "oracler",
          "type": "address"
        }
      ],
      "name": "oraclerMappingIndex",
      "outputs": [
        {
          "internalType": "uint256",
          "name": "index",
          "type": "uint256"
        }
      ],
      "stateMutability": "view",
      "type": "function"
    },
    {
      "inputs": [],
      "name": "getRegisteredOraclersAddress",
      "outputs": [
        {
          "internalType": "address[]",
          "name": "_oracles",
          "type": "address[]"
        }
      ],
      "stateMutability": "view",
      "type": "function"
    }
  ],
  "bytecode": "0x60806040523480156200001157600080fd5b50620000447f1effbbff9c66c5e59634f24fe842750c60d18891155c32dd155fc2d661a4c86d336200008b60201b60201c565b620000767fced6982f480260bdd8ad5cb18ff2854f0306d78d904ad6cc107e8f3a0f526c18336200008b60201b60201c565b670de0b6b3a764000060018190555062000192565b6200009d8282620000a160201b60201c565b5050565b620000b382826200012860201b60201c565b6200012457600160008084815260200190815260200160002060000160008373ffffffffffffffffffffffffffffffffffffffff1673ffffffffffffffffffffffffffffffffffffffff16815260200190815260200160002060006101000a81548160ff0219169083151502179055505b5050565b600080600084815260200190815260200160002060000160008373ffffffffffffffffffffffffffffffffffffffff1673ffffffffffffffffffffffffffffffffffffffff16815260200190815260200160002060009054906101000a900460ff16905092915050565b615e8b80620001a26000396000f3fe6080604052600436106101ee5760003560e01c8063a217fddf1161010d578063c3c5a547116100a0578063fa9a14b71161006f578063fa9a14b7146107e5578063fba6a41614610810578063fd986ccf1461084d578063fe1e3a9b14610857578063ffb4201814610894576101ee565b8063c3c5a54714610717578063c795fcb314610754578063d547741f1461077f578063d5c7704c146107a8576101ee565b8063b6a9a334116100dc578063b6a9a3341461065b578063b6d8f2d514610684578063be9c5938146106af578063bfc69e1c146106ec576101ee565b8063a217fddf14610579578063a5fde496146105a4578063a64c572d146105e1578063add069411461061e576101ee565b806354f3390a11610185578063845b058b11610154578063845b058b1461049957806391d14854146104d6578063987d4b77146105135780639fbfb78b1461053c576101ee565b806354f3390a146103d357806373b3607914610410578063792482231461043b5780637f45517c1461047d576101ee565b8063248a9ca3116101c1578063248a9ca3146102f1578063343cb6be1461032e5780633fa851ac146103595780634164cc4114610396576101ee565b806303467283146101f3578063042708911461023557806304e18b5314610277578063221a0b6f146102b4575b600080fd5b3480156101ff57600080fd5b5061021a6004803603810190610215919061494b565b6108d1565b60405161022c96959493929190615170565b60405180910390f35b34801561024157600080fd5b5061025c60048036038101906102579190614a70565b610fc7565b60405161026e96959493929190615253565b60405180910390f35b34801561028357600080fd5b5061029e60048036038101906102999190614a70565b61132a565b6040516102ab9190615133565b60405180910390f35b3480156102c057600080fd5b506102db60048036038101906102d69190614a70565b611379565b6040516102e89190615496565b60405180910390f35b3480156102fd57600080fd5b5061031860048036038101906103139190614994565b6113a8565b6040516103259190615238565b60405180910390f35b34801561033a57600080fd5b506103436113c7565b6040516103509190615496565b60405180910390f35b34801561036557600080fd5b50610380600480360381019061037b91906147f7565b6113d1565b60405161038d9190615496565b60405180910390f35b3480156103a257600080fd5b506103bd60048036038101906103b891906147f7565b61178d565b6040516103ca9190615496565b60405180910390f35b3480156103df57600080fd5b506103fa60048036038101906103f59190614864565b611842565b604051610407919061521d565b60405180910390f35b34801561041c57600080fd5b50610425611b59565b6040516104329190615496565b60405180910390f35b34801561044757600080fd5b50610462600480360381019061045d919061494b565b611b63565b60405161047496959493929190615170565b60405180910390f35b61049760048036038101906104929190614824565b611f84565b005b3480156104a557600080fd5b506104c060048036038101906104bb9190614a70565b611f88565b6040516104cd9190615496565b60405180910390f35b3480156104e257600080fd5b506104fd60048036038101906104f891906149c1565b611fb7565b60405161050a919061521d565b60405180910390f35b34801561051f57600080fd5b5061053a60048036038101906105359190614a01565b612021565b005b34801561054857600080fd5b50610563600480360381019061055e91906148a4565b612572565b604051610570919061521d565b60405180910390f35b34801561058557600080fd5b5061058e6128a9565b60405161059b9190615238565b60405180910390f35b3480156105b057600080fd5b506105cb60048036038101906105c69190614a70565b6128cd565b6040516105d89190615496565b60405180910390f35b3480156105ed57600080fd5b50610608600480360381019061060391906148a4565b6128fc565b604051610615919061521d565b60405180910390f35b34801561062a57600080fd5b50610645600480360381019061064091906147f7565b612bd9565b6040516106529190615496565b60405180910390f35b34801561066757600080fd5b50610682600480360381019061067d9190614a70565b612d6b565b005b34801561069057600080fd5b50610699612d75565b6040516106a69190615496565b60405180910390f35b3480156106bb57600080fd5b506106d660048036038101906106d191906147f7565b612d94565b6040516106e39190615496565b60405180910390f35b3480156106f857600080fd5b5061070161330c565b60405161070e9190615238565b60405180910390f35b34801561072357600080fd5b5061073e600480360381019061073991906147f7565b613330565b60405161074b919061521d565b60405180910390f35b34801561076057600080fd5b50610769613389565b60405161077691906151fb565b60405180910390f35b34801561078b57600080fd5b506107a660048036038101906107a191906149c1565b61351e565b005b3480156107b457600080fd5b506107cf60048036038101906107ca91906147f7565b613540565b6040516107dc9190615496565b60405180910390f35b3480156107f157600080fd5b506107fa613a4f565b604051610807919061514e565b60405180910390f35b34801561081c57600080fd5b50610837600480360381019061083291906147f7565b613add565b604051610844919061521d565b60405180910390f35b610855613c88565b005b34801561086357600080fd5b5061087e600480360381019061087991906148e4565b613c8a565b60405161088b919061521d565b60405180910390f35b3480156108a057600080fd5b506108bb60048036038101906108b691906147f7565b613ff3565b6040516108c8919061521d565b60405180910390f35b6060806060806060806000875167ffffffffffffffff8111156108f7576108f6615a06565b5b6040519080825280602002602001820160405280156109255781602001602082028036833780820191505090505b5090506000885167ffffffffffffffff81111561094557610944615a06565b5b6040519080825280602002602001820160405280156109735781602001602082028036833780820191505090505b5090506000895167ffffffffffffffff81111561099357610992615a06565b5b6040519080825280602002602001820160405280156109c15781602001602082028036833780820191505090505b50905060008a5167ffffffffffffffff8111156109e1576109e0615a06565b5b604051908082528060200260200182016040528015610a0f5781602001602082028036833780820191505090505b50905060008b5167ffffffffffffffff811115610a2f57610a2e615a06565b5b604051908082528060200260200182016040528015610a5d5781602001602082028036833780820191505090505b50905060008c5167ffffffffffffffff811115610a7d57610a7c615a06565b5b604051908082528060200260200182016040528015610aab5781602001602082028036833780820191505090505b50905060008d5167ffffffffffffffff811115610acb57610aca615a06565b5b604051908082528060200260200182016040528015610af95781602001602082028036833780820191505090505b50905060006007805480602002602001604051908101604052809291908181526020016000905b82821015610c88578382906000526020600020906008020160405180610100016040529081600082015481526020016001820160009054906101000a900473ffffffffffffffffffffffffffffffffffffffff1673ffffffffffffffffffffffffffffffffffffffff1673ffffffffffffffffffffffffffffffffffffffff168152602001600282018054610bb49061586d565b80601f0160208091040260200160405190810160405280929190818152602001828054610be09061586d565b8015610c2d5780601f10610c0257610100808354040283529160200191610c2d565b820191906000526020600020905b815481529060010190602001808311610c1057829003601f168201915b5050505050815260200160038201548152602001600482015481526020016005820160009054906101000a900460ff161515151581526020016006820154815260200160078201548152505081526020019060010190610b20565b5050505090506000600190505b8151811015610d9d576000600182610cad9190615688565b90505b8251811015610d8957828181518110610ccc57610ccb6159d7565b5b602002602001015160600151838381518110610ceb57610cea6159d7565b5b6020026020010151606001511115610d76576000838381518110610d1257610d116159d7565b5b60200260200101519050838281518110610d2f57610d2e6159d7565b5b6020026020010151848481518110610d4a57610d496159d7565b5b602002602001018190525080848381518110610d6957610d686159d7565b5b6020026020010181905250505b8080610d81906158d0565b915050610cb0565b508080610d95906158d0565b915050610c95565b5060005b8151811015610fa357818181518110610dbd57610dbc6159d7565b5b602002602001015160000151898281518110610ddc57610ddb6159d7565b5b602002602001018181525050818181518110610dfb57610dfa6159d7565b5b602002602001015160200151888281518110610e1a57610e196159d7565b5b602002602001019073ffffffffffffffffffffffffffffffffffffffff16908173ffffffffffffffffffffffffffffffffffffffff1681525050818181518110610e6757610e666159d7565b5b602002602001015160600151878281518110610e8657610e856159d7565b5b602002602001018181525050818181518110610ea557610ea46159d7565b5b602002602001015160800151868281518110610ec457610ec36159d7565b5b602002602001018181525050818181518110610ee357610ee26159d7565b5b602002602001015160a00151858281518110610f0257610f016159d7565b5b602002602001019015159081151581525050818181518110610f2757610f266159d7565b5b602002602001015160c00151848281518110610f4657610f456159d7565b5b602002602001018181525050818181518110610f6557610f646159d7565b5b602002602001015160e00151838281518110610f8457610f836159d7565b5b6020026020010181815250508080610f9b906158d0565b915050610da1565b508787878686869d509d509d509d509d509d50505050505050505091939550919395565b60008060008060008060018711611013576040517f08c379a000000000000000000000000000000000000000000000000000000000815260040161100a90615376565b60405180910390fd5b60006111ab6007805480602002602001604051908101604052809291908181526020016000905b828210156111a2578382906000526020600020906008020160405180610100016040529081600082015481526020016001820160009054906101000a900473ffffffffffffffffffffffffffffffffffffffff1673ffffffffffffffffffffffffffffffffffffffff1673ffffffffffffffffffffffffffffffffffffffff1681526020016002820180546110ce9061586d565b80601f01602080910402602001604051908101604052809291908181526020018280546110fa9061586d565b80156111475780601f1061111c57610100808354040283529160200191611147565b820191906000526020600020905b81548152906001019060200180831161112a57829003601f168201915b5050505050815260200160038201548152602001600482015481526020016005820160009054906101000a900460ff16151515158152602001600682015481526020016007820154815250508152602001906001019061103a565b505050506140a9565b905060006002896111bc9190615919565b9050600060028a6111cd91906156de565b9050600082146111e7576001816111e49190615688565b90505b60008382815181106111fc576111fb6159d7565b5b6020026020010151600001519050600084838151811061121f5761121e6159d7565b5b60200260200101516020015190506000858481518110611242576112416159d7565b5b60200260200101516060015190506000851461129d57600281876001876112699190615769565b8151811061127a576112796159d7565b5b6020026020010151606001516112909190615688565b61129a91906156de565b90505b60008685815181106112b2576112b16159d7565b5b602002602001015160a00151905060008786815181106112d5576112d46159d7565b5b602002602001015160c00151905060008887815181106112f8576112f76159d7565b5b602002602001015160e0015190508585858585859e509e509e509e509e509e5050505050505050505091939550919395565b6000600782815481106113405761133f6159d7565b5b906000526020600020906008020160010160009054906101000a900473ffffffffffffffffffffffffffffffffffffffff169050919050565b60006007828154811061138f5761138e6159d7565b5b9060005260206000209060080201600401549050919050565b6000806000838152602001908152602001600020600101549050919050565b6000600154905090565b60006113fd7fced6982f480260bdd8ad5cb18ff2854f0306d78d904ad6cc107e8f3a0f526c1833611fb7565b61143c576040517f08c379a000000000000000000000000000000000000000000000000000000000815260040161143390615456565b60405180910390fd5b600160078054905011611484576040517f08c379a000000000000000000000000000000000000000000000000000000000815260040161147b90615436565b60405180910390fd5b6001151561149183613ff3565b1515146114d3576040517f08c379a00000000000000000000000000000000000000000000000000000000081526004016114ca90615396565b60405180910390fd5b6000600190505b600780549050811015611733578273ffffffffffffffffffffffffffffffffffffffff1660078281548110611512576115116159d7565b5b906000526020600020906008020160010160009054906101000a900473ffffffffffffffffffffffffffffffffffffffff1673ffffffffffffffffffffffffffffffffffffffff1614156117205760078181548110611574576115736159d7565b5b90600052602060002090600802016000808201600090556001820160006101000a81549073ffffffffffffffffffffffffffffffffffffffff02191690556002820160006115c29190614525565b600382016000905560048201600090556005820160006101000a81549060ff0219169055600682016000905560078201600090555050600660008473ffffffffffffffffffffffffffffffffffffffff1673ffffffffffffffffffffffffffffffffffffffff1681526020019081526020016000206000808201600090556001820160006101000a81549073ffffffffffffffffffffffffffffffffffffffff02191690556002820160006116779190614525565b600382016000905560048201600090556005820160006101000a81549060ff02191690556006820160009055600782016000905550508273ffffffffffffffffffffffffffffffffffffffff167f72c8cb33e0136cd5b54707eec1a3e7d54335d98e46645cc7a2ad1ea1233d752960016040516116f4919061521d565b60405180910390a261171660016007805490506117119190615769565b6141c3565b6001915050611788565b808061172b906158d0565b9150506114da565b508173ffffffffffffffffffffffffffffffffffffffff167f56c52a97f03d7cf98ec61f4be71e37deee851317356cc0a5e21b6e8d4ff1b324600060405161177b919061521d565b60405180910390a2600090505b919050565b6000806000905060005b600780549050811015611838578373ffffffffffffffffffffffffffffffffffffffff16600782815481106117cf576117ce6159d7565b5b906000526020600020906008020160010160009054906101000a900473ffffffffffffffffffffffffffffffffffffffff1673ffffffffffffffffffffffffffffffffffffffff16141561182557809150611838565b8080611830906158d0565b915050611797565b5080915050919050565b600061186e7fced6982f480260bdd8ad5cb18ff2854f0306d78d904ad6cc107e8f3a0f526c1833611fb7565b6118ad576040517f08c379a00000000000000000000000000000000000000000000000000000000081526004016118a490615456565b60405180910390fd5b6001600780549050116118f5576040517f08c379a00000000000000000000000000000000000000000000000000000000081526004016118ec90615436565b60405180910390fd5b6001151561190284613ff3565b151514611944576040517f08c379a000000000000000000000000000000000000000000000000000000000815260040161193b90615396565b60405180910390fd5b6000600660008573ffffffffffffffffffffffffffffffffffffffff1673ffffffffffffffffffffffffffffffffffffffff16815260200190815260200160002060405180610100016040529081600082015481526020016001820160009054906101000a900473ffffffffffffffffffffffffffffffffffffffff1673ffffffffffffffffffffffffffffffffffffffff1673ffffffffffffffffffffffffffffffffffffffff168152602001600282018054611a019061586d565b80601f0160208091040260200160405190810160405280929190818152602001828054611a2d9061586d565b8015611a7a5780601f10611a4f57610100808354040283529160200191611a7a565b820191906000526020600020905b815481529060010190602001808311611a5d57829003601f168201915b5050505050815260200160038201548152602001600482015481526020016005820160009054906101000a900460ff16151515158152602001600682015481526020016007820154815250509050828160000181815250508260078260e0015181548110611aeb57611aea6159d7565b5b9060005260206000209060080201600001819055508373ffffffffffffffffffffffffffffffffffffffff167fd197786a952fc8701c807676e5f8940cdf693806288133d095af3545fa00015784604051611b469190615238565b60405180910390a2600091505092915050565b6000600254905090565b6060806060806060806000875167ffffffffffffffff811115611b8957611b88615a06565b5b604051908082528060200260200182016040528015611bb75781602001602082028036833780820191505090505b5090506000885167ffffffffffffffff811115611bd757611bd6615a06565b5b604051908082528060200260200182016040528015611c055781602001602082028036833780820191505090505b5090506000895167ffffffffffffffff811115611c2557611c24615a06565b5b604051908082528060200260200182016040528015611c535781602001602082028036833780820191505090505b50905060008a5167ffffffffffffffff811115611c7357611c72615a06565b5b604051908082528060200260200182016040528015611ca15781602001602082028036833780820191505090505b50905060008b5167ffffffffffffffff811115611cc157611cc0615a06565b5b604051908082528060200260200182016040528015611cef5781602001602082028036833780820191505090505b50905060008c5167ffffffffffffffff811115611d0f57611d0e615a06565b5b604051908082528060200260200182016040528015611d3d5781602001602082028036833780820191505090505b50905060005b600780549050811015611f625760078181548110611d6457611d636159d7565b5b906000526020600020906008020160000154878281518110611d8957611d886159d7565b5b60200260200101818152505060078181548110611da957611da86159d7565b5b906000526020600020906008020160010160009054906101000a900473ffffffffffffffffffffffffffffffffffffffff16868281518110611dee57611ded6159d7565b5b602002602001019073ffffffffffffffffffffffffffffffffffffffff16908173ffffffffffffffffffffffffffffffffffffffff168152505060078181548110611e3c57611e3b6159d7565b5b906000526020600020906008020160030154858281518110611e6157611e606159d7565b5b60200260200101818152505060078181548110611e8157611e806159d7565b5b906000526020600020906008020160050160009054906101000a900460ff16848281518110611eb357611eb26159d7565b5b60200260200101901515908115158152505060078181548110611ed957611ed86159d7565b5b906000526020600020906008020160060154838281518110611efe57611efd6159d7565b5b60200260200101818152505060078181548110611f1e57611f1d6159d7565b5b906000526020600020906008020160070154828281518110611f4357611f426159d7565b5b6020026020010181815250508080611f5a906158d0565b915050611d43565b508585858585859b509b509b509b509b509b5050505050505091939550919395565b5050565b600060078281548110611f9e57611f9d6159d7565b5b9060005260206000209060080201600701549050919050565b600080600084815260200190815260200160002060000160008373ffffffffffffffffffffffffffffffffffffffff1673ffffffffffffffffffffffffffffffffffffffff16815260200190815260200160002060009054906101000a900460ff16905092915050565b61204b7f1effbbff9c66c5e59634f24fe842750c60d18891155c32dd155fc2d661a4c86d83611fb7565b1561208b576040517f08c379a000000000000000000000000000000000000000000000000000000000815260040161208290615356565b60405180910390fd5b6120b57fced6982f480260bdd8ad5cb18ff2854f0306d78d904ad6cc107e8f3a0f526c1883611fb7565b156120f5576040517f08c379a00000000000000000000000000000000000000000000000000000000081526004016120ec90615476565b60405180910390fd5b60001515600660008473ffffffffffffffffffffffffffffffffffffffff1673ffffffffffffffffffffffffffffffffffffffff16815260200190815260200160002060050160009054906101000a900460ff1615151461218b576040517f08c379a000000000000000000000000000000000000000000000000000000000815260040161218290615336565b60405180910390fd5b60008273ffffffffffffffffffffffffffffffffffffffff1631116121e5576040517f08c379a00000000000000000000000000000000000000000000000000000000081526004016121dc90615416565b60405180910390fd5b60006001548373ffffffffffffffffffffffffffffffffffffffff163161220c9190615769565b1161224c576040517f08c379a0000000000000000000000000000000000000000000000000000000008152600401612243906152f6565b60405180910390fd5b60006040518061010001604052808581526020018473ffffffffffffffffffffffffffffffffffffffff16815260200183815260200160008152602001600081526020016001151581526020018473ffffffffffffffffffffffffffffffffffffffff16318152602001600354815250905080600660008573ffffffffffffffffffffffffffffffffffffffff1673ffffffffffffffffffffffffffffffffffffffff1681526020019081526020016000206000820151816000015560208201518160010160006101000a81548173ffffffffffffffffffffffffffffffffffffffff021916908373ffffffffffffffffffffffffffffffffffffffff160217905550604082015181600201908051906020019061236b929190614565565b50606082015181600301556080820151816004015560a08201518160050160006101000a81548160ff02191690831515021790555060c0820151816006015560e08201518160070155905050600360008154809291906123ca906158d0565b919050555060078190806001815401808255809150506001900390600052602060002090600802016000909190919091506000820151816000015560208201518160010160006101000a81548173ffffffffffffffffffffffffffffffffffffffff021916908373ffffffffffffffffffffffffffffffffffffffff1602179055506040820151816002019080519060200190612468929190614565565b50606082015181600301556080820151816004015560a08201518160050160006101000a81548160ff02191690831515021790555060c0820151816006015560e0820151816007015550506009839080600181540180825580915050600190039060005260206000200160009091909190916101000a81548173ffffffffffffffffffffffffffffffffffffffff021916908373ffffffffffffffffffffffffffffffffffffffff1602179055506125246007805490506141c3565b8060e001518373ffffffffffffffffffffffffffffffffffffffff167f72f7b60b313baa2404a444a0e700bf4503b03b07b2c7fb5cf709895416be4bf560405160405180910390a350505050565b60006001151561258184613ff3565b1515146125c3576040517f08c379a00000000000000000000000000000000000000000000000000000000081526004016125ba90615396565b60405180910390fd5b6000821015612607576040517f08c379a00000000000000000000000000000000000000000000000000000000081526004016125fe906153b6565b60405180910390fd5b60005b60078054905081101561289d578373ffffffffffffffffffffffffffffffffffffffff1660078281548110612642576126416159d7565b5b906000526020600020906008020160010160009054906101000a900473ffffffffffffffffffffffffffffffffffffffff1673ffffffffffffffffffffffffffffffffffffffff16141561288a5782600782815481106126a5576126a46159d7565b5b906000526020600020906008020160060160008282546126c59190615769565b925050819055506000600660008673ffffffffffffffffffffffffffffffffffffffff1673ffffffffffffffffffffffffffffffffffffffff16815260200190815260200160002060405180610100016040529081600082015481526020016001820160009054906101000a900473ffffffffffffffffffffffffffffffffffffffff1673ffffffffffffffffffffffffffffffffffffffff1673ffffffffffffffffffffffffffffffffffffffff1681526020016002820180546127899061586d565b80601f01602080910402602001604051908101604052809291908181526020018280546127b59061586d565b80156128025780601f106127d757610100808354040283529160200191612802565b820191906000526020600020905b8154815290600101906020018083116127e557829003601f168201915b5050505050815260200160038201548152602001600482015481526020016005820160009054906101000a900460ff1615151515815260200160068201548152602001600782015481525050905060078281548110612864576128636159d7565b5b9060005260206000209060080201600601548160c00181815250506001925050506128a3565b8080612895906158d0565b91505061260a565b50600090505b92915050565b7f1effbbff9c66c5e59634f24fe842750c60d18891155c32dd155fc2d661a4c86d81565b6000600782815481106128e3576128e26159d7565b5b9060005260206000209060080201600301549050919050565b60006001151561290b84613ff3565b15151461294d576040517f08c379a000000000000000000000000000000000000000000000000000000000815260040161294490615396565b60405180910390fd5b60005b600780549050811015612bcd578373ffffffffffffffffffffffffffffffffffffffff1660078281548110612988576129876159d7565b5b906000526020600020906008020160010160009054906101000a900473ffffffffffffffffffffffffffffffffffffffff1673ffffffffffffffffffffffffffffffffffffffff161415612bba5782600782815481106129eb576129ea6159d7565b5b90600052602060002090600802016006016000828254612a0b9190615688565b925050819055506000600660008673ffffffffffffffffffffffffffffffffffffffff1673ffffffffffffffffffffffffffffffffffffffff16815260200190815260200160002060405180610100016040529081600082015481526020016001820160009054906101000a900473ffffffffffffffffffffffffffffffffffffffff1673ffffffffffffffffffffffffffffffffffffffff1673ffffffffffffffffffffffffffffffffffffffff168152602001600282018054612acf9061586d565b80601f0160208091040260200160405190810160405280929190818152602001828054612afb9061586d565b8015612b485780601f10612b1d57610100808354040283529160200191612b48565b820191906000526020600020905b815481529060010190602001808311612b2b57829003601f168201915b5050505050815260200160038201548152602001600482015481526020016005820160009054906101000a900460ff16151515158152602001600682015481526020016007820154815250509050838160c001818151612ba89190615688565b91508181525050600192505050612bd3565b8080612bc5906158d0565b915050612950565b50600090505b92915050565b600080600660008473ffffffffffffffffffffffffffffffffffffffff1673ffffffffffffffffffffffffffffffffffffffff16815260200190815260200160002060405180610100016040529081600082015481526020016001820160009054906101000a900473ffffffffffffffffffffffffffffffffffffffff1673ffffffffffffffffffffffffffffffffffffffff1673ffffffffffffffffffffffffffffffffffffffff168152602001600282018054612c979061586d565b80601f0160208091040260200160405190810160405280929190818152602001828054612cc39061586d565b8015612d105780601f10612ce557610100808354040283529160200191612d10565b820191906000526020600020905b815481529060010190602001808311612cf357829003601f168201915b5050505050815260200160038201548152602001600482015481526020016005820160009054906101000a900460ff161515151581526020016006820154815260200160078201548152505090508060e00151915050919050565b8060018190555050565b600080612d86600780549050610fc7565b505050925050508091505090565b6000612dc07fced6982f480260bdd8ad5cb18ff2854f0306d78d904ad6cc107e8f3a0f526c1833611fb7565b612dff576040517f08c379a0000000000000000000000000000000000000000000000000000000008152600401612df690615456565b60405180910390fd5b600160078054905011612e47576040517f08c379a0000000000000000000000000000000000000000000000000000000008152600401612e3e90615436565b60405180910390fd5b60001515612e5483613add565b151514612e96576040517f08c379a0000000000000000000000000000000000000000000000000000000008152600401612e8d906153d6565b60405180910390fd5b6000600190505b6007805490508110156132b2578273ffffffffffffffffffffffffffffffffffffffff1660078281548110612ed557612ed46159d7565b5b906000526020600020906008020160010160009054906101000a900473ffffffffffffffffffffffffffffffffffffffff1673ffffffffffffffffffffffffffffffffffffffff16141561329f57600160078281548110612f3957612f386159d7565b5b906000526020600020906008020160050160006101000a81548160ff021916908315150217905550600860078281548110612f7757612f766159d7565b5b90600052602060002090600802019080600181540180825580915050600190039060005260206000209060080201600090919091909150600082015481600001556001820160009054906101000a900473ffffffffffffffffffffffffffffffffffffffff168160010160006101000a81548173ffffffffffffffffffffffffffffffffffffffff021916908373ffffffffffffffffffffffffffffffffffffffff16021790555060028201816002019080546130339061586d565b61303e9291906145eb565b5060038201548160030155600482015481600401556005820160009054906101000a900460ff168160050160006101000a81548160ff021916908315150217905550600682015481600601556007820154816007015550506000600660008573ffffffffffffffffffffffffffffffffffffffff1673ffffffffffffffffffffffffffffffffffffffff16815260200190815260200160002060405180610100016040529081600082015481526020016001820160009054906101000a900473ffffffffffffffffffffffffffffffffffffffff1673ffffffffffffffffffffffffffffffffffffffff1673ffffffffffffffffffffffffffffffffffffffff1681526020016002820180546131539061586d565b80601f016020809104026020016040519081016040528092919081815260200182805461317f9061586d565b80156131cc5780601f106131a1576101008083540402835291602001916131cc565b820191906000526020600020905b8154815290600101906020018083116131af57829003601f168201915b5050505050815260200160038201548152602001600482015481526020016005820160009054906101000a900460ff1615151515815260200160068201548152602001600782015481525050905060018160a001901515908115158152505061324560016007805490506132409190615688565b6141c3565b8373ffffffffffffffffffffffffffffffffffffffff167f56c52a97f03d7cf98ec61f4be71e37deee851317356cc0a5e21b6e8d4ff1b324600160405161328c919061521d565b60405180910390a2600192505050613307565b80806132aa906158d0565b915050612e9d565b508173ffffffffffffffffffffffffffffffffffffffff167f56c52a97f03d7cf98ec61f4be71e37deee851317356cc0a5e21b6e8d4ff1b32460006040516132fa919061521d565b60405180910390a2600090505b919050565b7fced6982f480260bdd8ad5cb18ff2854f0306d78d904ad6cc107e8f3a0f526c1881565b6000600660008373ffffffffffffffffffffffffffffffffffffffff1673ffffffffffffffffffffffffffffffffffffffff16815260200190815260200160002060050160009054906101000a900460ff169050919050565b60606007805480602002602001604051908101604052809291908181526020016000905b82821015613515578382906000526020600020906008020160405180610100016040529081600082015481526020016001820160009054906101000a900473ffffffffffffffffffffffffffffffffffffffff1673ffffffffffffffffffffffffffffffffffffffff1673ffffffffffffffffffffffffffffffffffffffff1681526020016002820180546134419061586d565b80601f016020809104026020016040519081016040528092919081815260200182805461346d9061586d565b80156134ba5780601f1061348f576101008083540402835291602001916134ba565b820191906000526020600020905b81548152906001019060200180831161349d57829003601f168201915b5050505050815260200160038201548152602001600482015481526020016005820160009054906101000a900460ff1615151515815260200160068201548152602001600782015481525050815260200190600101906133ad565b50505050905090565b613527826113a8565b61353181336141cd565b61353b838361426a565b505050565b600060016007805490501161358a576040517f08c379a000000000000000000000000000000000000000000000000000000000815260040161358190615436565b60405180910390fd5b6001151561359783613add565b1515146135d9576040517f08c379a00000000000000000000000000000000000000000000000000000000081526004016135d0906153f6565b60405180910390fd5b6000600190505b6007805490508110156139f5578273ffffffffffffffffffffffffffffffffffffffff1660078281548110613618576136176159d7565b5b906000526020600020906008020160010160009054906101000a900473ffffffffffffffffffffffffffffffffffffffff1673ffffffffffffffffffffffffffffffffffffffff1614156139e25760006007828154811061367c5761367b6159d7565b5b906000526020600020906008020160050160006101000a81548160ff0219169083151502179055506008600782815481106136ba576136b96159d7565b5b90600052602060002090600802019080600181540180825580915050600190039060005260206000209060080201600090919091909150600082015481600001556001820160009054906101000a900473ffffffffffffffffffffffffffffffffffffffff168160010160006101000a81548173ffffffffffffffffffffffffffffffffffffffff021916908373ffffffffffffffffffffffffffffffffffffffff16021790555060028201816002019080546137769061586d565b6137819291906145eb565b5060038201548160030155600482015481600401556005820160009054906101000a900460ff168160050160006101000a81548160ff021916908315150217905550600682015481600601556007820154816007015550506000600660008573ffffffffffffffffffffffffffffffffffffffff1673ffffffffffffffffffffffffffffffffffffffff16815260200190815260200160002060405180610100016040529081600082015481526020016001820160009054906101000a900473ffffffffffffffffffffffffffffffffffffffff1673ffffffffffffffffffffffffffffffffffffffff1673ffffffffffffffffffffffffffffffffffffffff1681526020016002820180546138969061586d565b80601f01602080910402602001604051908101604052809291908181526020018280546138c29061586d565b801561390f5780601f106138e45761010080835404028352916020019161390f565b820191906000526020600020905b8154815290600101906020018083116138f257829003601f168201915b5050505050815260200160038201548152602001600482015481526020016005820160009054906101000a900460ff1615151515815260200160068201548152602001600782015481525050905060008160a001901515908115158152505061398860016007805490506139839190615769565b6141c3565b8373ffffffffffffffffffffffffffffffffffffffff167f831e0dcd09dea1ba50240d53a918570496a4d7031ea43c67a068f1695e38ad5a60016040516139cf919061521d565b60405180910390a2600192505050613a4a565b80806139ed906158d0565b9150506135e0565b508173ffffffffffffffffffffffffffffffffffffffff167f831e0dcd09dea1ba50240d53a918570496a4d7031ea43c67a068f1695e38ad5a6000604051613a3d919061521d565b60405180910390a2600090505b919050565b60606009805480602002602001604051908101604052809291908181526020018280548015613ad357602002820191906000526020600020905b8160009054906101000a900473ffffffffffffffffffffffffffffffffffffffff1673ffffffffffffffffffffffffffffffffffffffff1681526020019060010190808311613a89575b5050505050905090565b600080600660008473ffffffffffffffffffffffffffffffffffffffff1673ffffffffffffffffffffffffffffffffffffffff16815260200190815260200160002060405180610100016040529081600082015481526020016001820160009054906101000a900473ffffffffffffffffffffffffffffffffffffffff1673ffffffffffffffffffffffffffffffffffffffff1673ffffffffffffffffffffffffffffffffffffffff168152602001600282018054613b9b9061586d565b80601f0160208091040260200160405190810160405280929190818152602001828054613bc79061586d565b8015613c145780601f10613be957610100808354040283529160200191613c14565b820191906000526020600020905b815481529060010190602001808311613bf757829003601f168201915b5050505050815260200160038201548152602001600482015481526020016005820160009054906101000a900460ff16151515158152602001600682015481526020016007820154815250509050600115158160a0015115151415613c7d576001915050613c83565b60009150505b919050565b565b60006064831115613cd0576040517f08c379a0000000000000000000000000000000000000000000000000000000008152600401613cc790615316565b60405180910390fd5b600160078054905011613d18576040517f08c379a0000000000000000000000000000000000000000000000000000000008152600401613d0f90615436565b60405180910390fd5b60011515613d2586613ff3565b151514613d67576040517f08c379a0000000000000000000000000000000000000000000000000000000008152600401613d5e90615396565b60405180910390fd5b8260078581548110613d7c57613d7b6159d7565b5b9060005260206000209060080201600301819055508160078581548110613da657613da56159d7565b5b90600052602060002090600802016004018190555060006006600060078781548110613dd557613dd46159d7565b5b906000526020600020906008020160010160009054906101000a900473ffffffffffffffffffffffffffffffffffffffff1673ffffffffffffffffffffffffffffffffffffffff1673ffffffffffffffffffffffffffffffffffffffff16815260200190815260200160002060405180610100016040529081600082015481526020016001820160009054906101000a900473ffffffffffffffffffffffffffffffffffffffff1673ffffffffffffffffffffffffffffffffffffffff1673ffffffffffffffffffffffffffffffffffffffff168152602001600282018054613ebd9061586d565b80601f0160208091040260200160405190810160405280929190818152602001828054613ee99061586d565b8015613f365780601f10613f0b57610100808354040283529160200191613f36565b820191906000526020600020905b815481529060010190602001808311613f1957829003601f168201915b5050505050815260200160038201548152602001600482015481526020016005820160009054906101000a900460ff1615151515815260200160068201548152602001600782015481525050905083816060018181525050828160800181815250508573ffffffffffffffffffffffffffffffffffffffff167f52837b92194644eb8144e33c7b0dd22b8d29f7cffb85e8f75b942ae39966743184604051613fde9190615496565b60405180910390a26001915050949350505050565b600080600090505b60078054905081101561409e578273ffffffffffffffffffffffffffffffffffffffff1660078281548110614033576140326159d7565b5b906000526020600020906008020160010160009054906101000a900473ffffffffffffffffffffffffffffffffffffffff1673ffffffffffffffffffffffffffffffffffffffff16141561408b5760019150506140a4565b8080614096906158d0565b915050613ffb565b50600090505b919050565b60606000600190505b82518110156141ba5760006001826140ca9190615688565b90505b83518110156141a6578381815181106140e9576140e86159d7565b5b602002602001015160600151848381518110614108576141076159d7565b5b602002602001015160600151111561419357600084838151811061412f5761412e6159d7565b5b6020026020010151905084828151811061414c5761414b6159d7565b5b6020026020010151858481518110614167576141666159d7565b5b602002602001018190525080858381518110614186576141856159d7565b5b6020026020010181905250505b808061419e906158d0565b9150506140cd565b5080806141b2906158d0565b9150506140b2565b50819050919050565b8060028190555050565b6141d78282611fb7565b614266576141fc8173ffffffffffffffffffffffffffffffffffffffff1660146142e9565b61420a8360001c60206142e9565b60405160200161421b9291906150f9565b6040516020818303038152906040526040517f08c379a000000000000000000000000000000000000000000000000000000000815260040161425d91906152b4565b60405180910390fd5b5050565b6142748282611fb7565b156142e557600080600084815260200190815260200160002060000160008373ffffffffffffffffffffffffffffffffffffffff1673ffffffffffffffffffffffffffffffffffffffff16815260200190815260200160002060006101000a81548160ff0219169083151502179055505b5050565b6060600060028360026142fc919061570f565b6143069190615688565b67ffffffffffffffff81111561431f5761431e615a06565b5b6040519080825280601f01601f1916602001820160405280156143515781602001600182028036833780820191505090505b5090507f300000000000000000000000000000000000000000000000000000000000000081600081518110614389576143886159d7565b5b60200101907effffffffffffffffffffffffffffffffffffffffffffffffffffffffffffff1916908160001a9053507f7800000000000000000000000000000000000000000000000000000000000000816001815181106143ed576143ec6159d7565b5b60200101907effffffffffffffffffffffffffffffffffffffffffffffffffffffffffffff1916908160001a9053506000600184600261442d919061570f565b6144379190615688565b90505b60018111156144d7577f3031323334353637383961626364656600000000000000000000000000000000600f861660108110614479576144786159d7565b5b1a60f81b8282815181106144905761448f6159d7565b5b60200101907effffffffffffffffffffffffffffffffffffffffffffffffffffffffffffff1916908160001a905350600485901c9450806144d090615843565b905061443a565b506000841461451b576040517f08c379a0000000000000000000000000000000000000000000000000000000008152600401614512906152d6565b60405180910390fd5b8091505092915050565b5080546145319061586d565b6000825580601f106145435750614562565b601f0160209004906000526020600020908101906145619190614678565b5b50565b8280546145719061586d565b90600052602060002090601f01602090048101928261459357600085556145da565b82601f106145ac57805160ff19168380011785556145da565b828001600101855582156145da579182015b828111156145d95782518255916020019190600101906145be565b5b5090506145e79190614678565b5090565b8280546145f79061586d565b90600052602060002090601f0160209004810192826146195760008555614667565b82601f1061462a5780548555614667565b8280016001018555821561466757600052602060002091601f016020900482015b8281111561466657825482559160010191906001019061464b565b5b5090506146749190614678565b5090565b5b80821115614691576000816000905550600101614679565b5090565b60006146a86146a3846154d6565b6154b1565b905080838252602082019050828560208602820111156146cb576146ca615a3a565b5b60005b858110156146fb57816146e188826147e2565b8452602084019350602083019250506001810190506146ce565b5050509392505050565b600061471861471384615502565b6154b1565b90508281526020810184848401111561473457614733615a3f565b5b61473f848285615801565b509392505050565b60008135905061475681615df9565b92915050565b60008135905061476b81615e10565b92915050565b600082601f83011261478657614785615a35565b5b8135614796848260208601614695565b91505092915050565b6000813590506147ae81615e27565b92915050565b600082601f8301126147c9576147c8615a35565b5b81356147d9848260208601614705565b91505092915050565b6000813590506147f181615e3e565b92915050565b60006020828403121561480d5761480c615a49565b5b600061481b84828501614747565b91505092915050565b6000806040838503121561483b5761483a615a49565b5b60006148498582860161475c565b925050602061485a858286016147e2565b9150509250929050565b6000806040838503121561487b5761487a615a49565b5b600061488985828601614747565b925050602061489a8582860161479f565b9150509250929050565b600080604083850312156148bb576148ba615a49565b5b60006148c985828601614747565b92505060206148da858286016147e2565b9150509250929050565b600080600080608085870312156148fe576148fd615a49565b5b600061490c87828801614747565b945050602061491d878288016147e2565b935050604061492e878288016147e2565b925050606061493f878288016147e2565b91505092959194509250565b60006020828403121561496157614960615a49565b5b600082013567ffffffffffffffff81111561497f5761497e615a44565b5b61498b84828501614771565b91505092915050565b6000602082840312156149aa576149a9615a49565b5b60006149b88482850161479f565b91505092915050565b600080604083850312156149d8576149d7615a49565b5b60006149e68582860161479f565b92505060206149f785828601614747565b9150509250929050565b600080600060608486031215614a1a57614a19615a49565b5b6000614a288682870161479f565b9350506020614a3986828701614747565b925050604084013567ffffffffffffffff811115614a5a57614a59615a44565b5b614a66868287016147b4565b9150509250925092565b600060208284031215614a8657614a85615a49565b5b6000614a94848285016147e2565b91505092915050565b6000614aa98383614b11565b60208301905092915050565b6000614ac18383614d1c565b60208301905092915050565b6000614ad98383614d3a565b60208301905092915050565b6000614af1838361502b565b905092915050565b6000614b0583836150db565b60208301905092915050565b614b1a8161579d565b82525050565b614b298161579d565b82525050565b6000614b3a82615583565b614b448185615606565b9350614b4f83615533565b8060005b83811015614b80578151614b678882614a9d565b9750614b72836155c5565b925050600181019050614b53565b5085935050505092915050565b6000614b988261558e565b614ba28185615617565b9350614bad83615543565b8060005b83811015614bde578151614bc58882614ab5565b9750614bd0836155d2565b925050600181019050614bb1565b5085935050505092915050565b6000614bf682615599565b614c008185615628565b9350614c0b83615553565b8060005b83811015614c3c578151614c238882614acd565b9750614c2e836155df565b925050600181019050614c0f565b5085935050505092915050565b6000614c54826155a4565b614c5e8185615639565b935083602082028501614c7085615563565b8060005b85811015614cac5784840389528151614c8d8582614ae5565b9450614c98836155ec565b925060208a01995050600181019050614c74565b50829750879550505050505092915050565b6000614cc9826155af565b614cd3818561564a565b9350614cde83615573565b8060005b83811015614d0f578151614cf68882614af9565b9750614d01836155f9565b925050600181019050614ce2565b5085935050505092915050565b614d25816157c1565b82525050565b614d34816157c1565b82525050565b614d43816157cd565b82525050565b614d52816157cd565b82525050565b6000614d63826155ba565b614d6d818561565b565b9350614d7d818560208601615810565b614d8681615a4e565b840191505092915050565b6000614d9c826155ba565b614da6818561566c565b9350614db6818560208601615810565b614dbf81615a4e565b840191505092915050565b6000614dd5826155ba565b614ddf818561567d565b9350614def818560208601615810565b80840191505092915050565b6000614e0860208361566c565b9150614e1382615a5f565b602082019050919050565b6000614e2b60248361566c565b9150614e3682615a88565b604082019050919050565b6000614e4e602b8361566c565b9150614e5982615ad7565b604082019050919050565b6000614e71602e8361566c565b9150614e7c82615b26565b604082019050919050565b6000614e9460198361566c565b9150614e9f82615b75565b602082019050919050565b6000614eb760208361566c565b9150614ec282615b9e565b602082019050919050565b6000614eda60178361566c565b9150614ee582615bc7565b602082019050919050565b6000614efd601b8361566c565b9150614f0882615bf0565b602082019050919050565b6000614f20601a8361566c565b9150614f2b82615c19565b602082019050919050565b6000614f4360208361566c565b9150614f4e82615c42565b602082019050919050565b6000614f6660268361566c565b9150614f7182615c6b565b604082019050919050565b6000614f8960218361566c565b9150614f9482615cba565b604082019050919050565b6000614fac60178361567d565b9150614fb782615d09565b601782019050919050565b6000614fcf60288361566c565b9150614fda82615d32565b604082019050919050565b6000614ff260118361567d565b9150614ffd82615d81565b601182019050919050565b600061501560228361566c565b915061502082615daa565b604082019050919050565b6000610100830160008301516150446000860182614d3a565b5060208301516150576020860182614b11565b506040830151848203604086015261506f8282614d58565b915050606083015161508460608601826150db565b50608083015161509760808601826150db565b5060a08301516150aa60a0860182614d1c565b5060c08301516150bd60c08601826150db565b5060e08301516150d060e08601826150db565b508091505092915050565b6150e4816157f7565b82525050565b6150f3816157f7565b82525050565b600061510482614f9f565b91506151108285614dca565b915061511b82614fe5565b91506151278284614dca565b91508190509392505050565b60006020820190506151486000830184614b20565b92915050565b600060208201905081810360008301526151688184614b2f565b905092915050565b600060c082019050818103600083015261518a8189614beb565b9050818103602083015261519e8188614b2f565b905081810360408301526151b28187614cbe565b905081810360608301526151c68186614b8d565b905081810360808301526151da8185614cbe565b905081810360a08301526151ee8184614cbe565b9050979650505050505050565b600060208201905081810360008301526152158184614c49565b905092915050565b60006020820190506152326000830184614d2b565b92915050565b600060208201905061524d6000830184614d49565b92915050565b600060c0820190506152686000830189614d49565b6152756020830188614b20565b61528260408301876150ea565b61528f6060830186614d2b565b61529c60808301856150ea565b6152a960a08301846150ea565b979650505050505050565b600060208201905081810360008301526152ce8184614d91565b905092915050565b600060208201905081810360008301526152ef81614dfb565b9050919050565b6000602082019050818103600083015261530f81614e1e565b9050919050565b6000602082019050818103600083015261532f81614e41565b9050919050565b6000602082019050818103600083015261534f81614e64565b9050919050565b6000602082019050818103600083015261536f81614e87565b9050919050565b6000602082019050818103600083015261538f81614eaa565b9050919050565b600060208201905081810360008301526153af81614ecd565b9050919050565b600060208201905081810360008301526153cf81614ef0565b9050919050565b600060208201905081810360008301526153ef81614f13565b9050919050565b6000602082019050818103600083015261540f81614f36565b9050919050565b6000602082019050818103600083015261542f81614f59565b9050919050565b6000602082019050818103600083015261544f81614f7c565b9050919050565b6000602082019050818103600083015261546f81614fc2565b9050919050565b6000602082019050818103600083015261548f81615008565b9050919050565b60006020820190506154ab60008301846150ea565b92915050565b60006154bb6154cc565b90506154c7828261589f565b919050565b6000604051905090565b600067ffffffffffffffff8211156154f1576154f0615a06565b5b602082029050602081019050919050565b600067ffffffffffffffff82111561551d5761551c615a06565b5b61552682615a4e565b9050602081019050919050565b6000819050602082019050919050565b6000819050602082019050919050565b6000819050602082019050919050565b6000819050602082019050919050565b6000819050602082019050919050565b600081519050919050565b600081519050919050565b600081519050919050565b600081519050919050565b600081519050919050565b600081519050919050565b6000602082019050919050565b6000602082019050919050565b6000602082019050919050565b6000602082019050919050565b6000602082019050919050565b600082825260208201905092915050565b600082825260208201905092915050565b600082825260208201905092915050565b600082825260208201905092915050565b600082825260208201905092915050565b600082825260208201905092915050565b600082825260208201905092915050565b600081905092915050565b6000615693826157f7565b915061569e836157f7565b9250827fffffffffffffffffffffffffffffffffffffffffffffffffffffffffffffffff038211156156d3576156d261594a565b5b828201905092915050565b60006156e9826157f7565b91506156f4836157f7565b92508261570457615703615979565b5b828204905092915050565b600061571a826157f7565b9150615725836157f7565b9250817fffffffffffffffffffffffffffffffffffffffffffffffffffffffffffffffff048311821515161561575e5761575d61594a565b5b828202905092915050565b6000615774826157f7565b915061577f836157f7565b9250828210156157925761579161594a565b5b828203905092915050565b60006157a8826157d7565b9050919050565b60006157ba826157d7565b9050919050565b60008115159050919050565b6000819050919050565b600073ffffffffffffffffffffffffffffffffffffffff82169050919050565b6000819050919050565b82818337600083830152505050565b60005b8381101561582e578082015181840152602081019050615813565b8381111561583d576000848401525b50505050565b600061584e826157f7565b915060008214156158625761586161594a565b5b600182039050919050565b6000600282049050600182168061588557607f821691505b60208210811415615899576158986159a8565b5b50919050565b6158a882615a4e565b810181811067ffffffffffffffff821117156158c7576158c6615a06565b5b80604052505050565b60006158db826157f7565b91507fffffffffffffffffffffffffffffffffffffffffffffffffffffffffffffffff82141561590e5761590d61594a565b5b600182019050919050565b6000615924826157f7565b915061592f836157f7565b92508261593f5761593e615979565b5b828206905092915050565b7f4e487b7100000000000000000000000000000000000000000000000000000000600052601160045260246000fd5b7f4e487b7100000000000000000000000000000000000000000000000000000000600052601260045260246000fd5b7f4e487b7100000000000000000000000000000000000000000000000000000000600052602260045260246000fd5b7f4e487b7100000000000000000000000000000000000000000000000000000000600052603260045260246000fd5b7f4e487b7100000000000000000000000000000000000000000000000000000000600052604160045260246000fd5b600080fd5b600080fd5b600080fd5b600080fd5b600080fd5b6000601f19601f8301169050919050565b7f537472696e67733a20686578206c656e67746820696e73756666696369656e74600082015250565b7f4f7261636c6572732062616c616e63652063616e6e6f74206265206e6567617460008201527f6976652e00000000000000000000000000000000000000000000000000000000602082015250565b7f506f70756c6172697479206d75737420626520696e207468652072616e67652060008201527f6f66205b302c3130305d2e000000000000000000000000000000000000000000602082015250565b7f4f7261636c65727320617265206e6f7420616c6c6f77656420746f2072652d7260008201527f6567697374657220616761696e2e000000000000000000000000000000000000602082015250565b7f41646d696e2063616e6e6f7420626520616e204f7261636c6500000000000000600082015250565b7f546865726520617265206e6f2072656769737465726564206f7261636c657273600082015250565b7f4f7261636c657220646f6573206e6f742065786973742e000000000000000000600082015250565b7f42616c616e63652063616e6e6f74206265206e656761746976652e0000000000600082015250565b7f4f7261636c657220697320616c7265616479206163746976652e000000000000600082015250565b7f4f7261636c657220697320616c726561647920756e726567697374657265642e600082015250565b7f4f7261636c657273206d75737420686176652061206e6f6e2d7a65726f20626160008201527f6c616e63652e0000000000000000000000000000000000000000000000000000602082015250565b7f546865726520617265206e6f2072656769737465726564206f7261636c65727360008201527f2e00000000000000000000000000000000000000000000000000000000000000602082015250565b7f416363657373436f6e74726f6c3a206163636f756e7420000000000000000000600082015250565b7f4f7261636c6572206d616e6167657220686173206f6e6c79207468652070657260008201527f6d697373696f6e2e000000000000000000000000000000000000000000000000602082015250565b7f206973206d697373696e6720726f6c6520000000000000000000000000000000600082015250565b7f4f7261636c65204d616e616765722063616e6e6f7420626520616e204f72616360008201527f6c65000000000000000000000000000000000000000000000000000000000000602082015250565b615e028161579d565b8114615e0d57600080fd5b50565b615e19816157af565b8114615e2457600080fd5b50565b615e30816157cd565b8114615e3b57600080fd5b50565b615e47816157f7565b8114615e5257600080fd5b5056fea26469706673582212209e36fd8a959bfc20ba837197697428836f6813fc21d99ee613a424be1e76b33764736f6c63430008070033",
  "immutableReferences": {},
  "source": "// SPDX-License-Identifier: GPL-3.0-or-later\npragma solidity >=0.6.0;\nimport \"./Request.sol\";\nimport \"./AccessControl.sol\";\n\ncontract Oracle is AccessControl{\n    \n    // event Received(address, uint);\n    // receive() external payable {\n    //     emit Received(msg.sender, msg.value);\n    // }\n    // function getBalance() public view returns (uint256){\n    //     return address(this).balance;\n    // }\n    // function sendAllBalance() public payable{\n    //     payable(msg.sender).transfer(address(this).balance);\n    // }\n    \n    \n   \n    uint256 private stakeThreshold;\n    uint256 private countOraclers;\n    uint256 private nextOraclerId;\n    uint256 private nextRequestId;\n    uint256 private nextResponseId;\n\n    function setStakeThreshold(uint256 value) public {\n        stakeThreshold = value;\n    }\n\n\n    function getStakeThreshold() public view returns (uint256 value) {\n        return stakeThreshold;\n    }\n\n\n    constructor() {\n        _setupRole(DEFAULT_ADMIN_ROLE,msg.sender);\n        _setupRole(ORACLE_MANAGER_ROLE,msg.sender);\n        stakeThreshold = 1000000000000000000 wei;\n    }\n\n    //Oracle struct for the oracle object\n    struct Oraclers {\n        bytes32 name;\n        address owner;\n        string api;\n        uint256 popularity;\n        uint256 numericPopularity;\n        // registered == true (active) or registered == false deactivated\n        bool registered;\n        uint256 balance;\n        uint256 oraclerId;\n    }\n\n    // mapping(uint256 => Oraclers) public oraclers;\n    mapping(address => Oraclers) private oraclers;\n    Oraclers[] private oraclersSet;\n    Oraclers[] private unregisteredOraclersSet;\n    address[] private oraclersAddress;\n\n    // Getter function\n    function getOraclersSet() public view returns(Oraclers[] memory){\n        return oraclersSet;\n    }\n\n\n    //Event for creation of an oracle\n    event oracleIsCreated(address indexed oracler, uint256 indexed oraclerId);\n    //Event for unregistering an oracle\n    event oracleIsUnregistered(address indexed oracler, uint256 oraclerId);\n    //Event for deactivation of an oracle\n    event oracleIsDeactivated(address indexed oracler, bool result);\n    //Event for activeation of an oracle\n    event oracleIsActivated(address indexed oracler, bool result);\n    //Event for deletion of an oracle\n    event oracleIsDeleted(address indexed oracler, bool result);\n    //Event for oracle popularity changes\n    event oraclePopularityIsChanged(address indexed oracler, uint256 value);\n    //Event for changing the oracle name\n    event oracleNameIsChanged(address indexed oraclerAddress, bytes32 value);\n\n  \n\n\n    //Create oraclers for fetching information\n    function createOracle(bytes32 name, address owner,string memory api) public {\n        require(!hasRole(DEFAULT_ADMIN_ROLE,owner),\"Admin cannot be an Oracle\");\n        require(!hasRole(ORACLE_MANAGER_ROLE,owner),\"Oracle Manager cannot be an Oracle\");\n        require(oraclers[owner].registered == false,\"Oraclers are not allowed to re-register again.\");\n        require(owner.balance > 0, \"Oraclers must have a non-zero balance.\");\n        require(owner.balance - (stakeThreshold) > 0,\"Oraclers balance cannot be negative.\");\n        \n        // bytes32 name;\n        // address owner;\n        // string api;\n        // uint256 popularity;\n        // uint256 numericPopularity;\n        // bool registered;\n        // uint256 balance;\n        // uint256 oraclerId;\n        Oraclers memory oracle =\n            Oraclers(name, owner,api, 0, 0, true, owner.balance, nextOraclerId);\n            \n        oraclers[owner] = oracle;\n        // oraclersMappingIndex.push(nextOraclerId);\n        nextOraclerId++;\n        oraclersSet.push(oracle);\n        oraclersAddress.push(owner);\n        setCountRegisteredOraclers(oraclersSet.length);\n\n        emit oracleIsCreated(owner, oracle.oraclerId);\n    }\n\n\n\n    //Index 0 belongs to the manager\n    //Change a registered oracler status\n    function deactivateOraclers(address oraclerAddress)\n        public\n        returns (uint256 _reply)\n    {\n        require(oraclersSet.length > 1, \"There are no registered oraclers.\");\n        require(\n            isOraclerActive(oraclerAddress) == true,\n            \"Oracler is already unregistered.\"\n        );\n        for (uint256 i = 1; i < oraclersSet.length; i++) {\n            if (oraclersSet[i].owner == oraclerAddress) {\n                oraclersSet[i].registered = false;\n                unregisteredOraclersSet.push(oraclersSet[i]);\n                // Oraclers memory _oracler = oraclers[i];\n                Oraclers memory _oracler = oraclers[oraclerAddress];\n                _oracler.registered = false;\n                setCountRegisteredOraclers(oraclersSet.length - 1);\n                emit oracleIsDeactivated(oraclerAddress, true);\n                return 1;\n            }\n        }\n        emit oracleIsDeactivated(oraclerAddress, false);\n        return 0;\n    }\n\n    //Index 0 belogns to the manager\n    //Activate an inactive oracler\n    function activateOraclers(address oraclerAddress)\n        public\n        returns (uint256 reply)\n    {\n        require(\n            hasRole(ORACLE_MANAGER_ROLE,msg.sender),\n            \"Oracler manager has only the permission.\"\n        );\n        require(oraclersSet.length > 1, \"There are no registered oraclers.\");\n        require(\n            isOraclerActive(oraclerAddress) == false,\n            \"Oracler is already active.\"\n        );\n        for (uint256 i = 1; i < oraclersSet.length; i++) {\n            if (oraclersSet[i].owner == oraclerAddress) {\n                oraclersSet[i].registered = true;\n                unregisteredOraclersSet.push(oraclersSet[i]);\n                // Oraclers memory _oracler = oraclers[i];\n                // Oraclers memory _oracler = oraclers[i];\n                Oraclers memory _oracler = oraclers[oraclerAddress];\n                _oracler.registered = true;\n                setCountRegisteredOraclers(oraclersSet.length + 1);\n                emit oracleIsActivated(oraclerAddress, true);\n                return 1;\n            }\n        }\n        emit oracleIsActivated(oraclerAddress, false);\n        return 0;\n    }\n\n    //Index 0 belongs to the manager\n    //Delete a specified oraclers from set\n    //from mapping and from index\n    function deleteOraclers(address oraclerAddress)\n        public\n        returns (uint256 _reply)\n    {\n        require(\n            hasRole(ORACLE_MANAGER_ROLE,msg.sender),\n            \"Oracler manager has only the permission.\"\n        );\n        require(oraclersSet.length > 1, \"There are no registered oraclers.\");\n        require(\n            isOraclerRegistered(oraclerAddress) == true,\n            \"Oracler does not exist.\"\n        );\n        for (uint256 i = 1; i < oraclersSet.length; i++) {\n            if (oraclersSet[i].owner == oraclerAddress) {\n                delete oraclersSet[i];\n                // delete oraclers[i];\n                delete oraclers[oraclerAddress];\n                // delete oraclersMappingIndex[i];\n                emit oracleIsDeleted(oraclerAddress, true);\n                setCountRegisteredOraclers(oraclersSet.length - 1);\n                return 1;\n            }\n        }\n        emit oracleIsActivated(oraclerAddress, false);\n        return 0;\n    }\n\n    //Index 0 belongs to manager\n    //Change an oracle popularity\n    function changeOraclerPopularity(\n        address oraclerAddress,\n        uint256 index,\n        uint256 value,\n        uint256 numericValue\n    ) public returns (bool) {\n        require(value <= 100, \"Popularity must be in the range of [0,100].\");\n        require(oraclersSet.length > 1, \"There are no registered oraclers.\");\n        require(\n            isOraclerRegistered(oraclerAddress) == true,\n            \"Oracler does not exist.\"\n        );\n        oraclersSet[index].popularity = value;\n        oraclersSet[index].numericPopularity = numericValue;\n        Oraclers memory _oracler = oraclers[oraclersSet[index].owner];\n        _oracler.popularity = value;\n        _oracler.numericPopularity = numericValue;\n        emit oraclePopularityIsChanged(oraclerAddress, numericValue);\n        return true;\n    }\n    /////////////////////////////////////////////////////////////////////////////////////////\n    //Index 0 belongs to manager\n    //Change an oracle balance\n    function increaseOraclerBalance(address oraclerAddress, uint256 value)\n        public\n        returns (bool)\n    {\n        require(\n            isOraclerRegistered(oraclerAddress) == true,\n            \"Oracler does not exist.\"\n        );\n        for (uint256 i = 0; i < oraclersSet.length; i++) {\n            if (oraclersSet[i].owner == oraclerAddress) {\n                oraclersSet[i].balance += value;\n                Oraclers memory _oracler = oraclers[oraclerAddress];\n                _oracler.balance += value;\n                return true;\n            }\n        }\n        return false;\n    }\n\n    //Index 0 belongs to manager\n    //Change an oracle popularity\n    function decreaseOraclerBalance(address oraclerAddress, uint256 value)\n        public\n        returns (bool)\n    {\n        require(\n            isOraclerRegistered(oraclerAddress) == true,\n            \"Oracler does not exist.\"\n        );\n        require(value >= 0, \"Balance cannot be negative.\");\n        for (uint256 i = 0; i < oraclersSet.length; i++) {\n            if (oraclersSet[i].owner == oraclerAddress) {\n                oraclersSet[i].balance -= value;\n                Oraclers memory _oracler = oraclers[oraclerAddress];\n                _oracler.balance = oraclersSet[i].balance;\n                return true;\n            }\n        }\n        return false;\n    }\n\n    function manageOraclerBalance(address payable oraclerAddress, uint256 value)\n        public\n        payable\n    {}\n\n    //Index 0 belongs to manager\n    //Change an oracler name\n    function changeOraclerName(address oraclerAddress, bytes32 value)\n        public\n        returns (bool)\n    {\n        require(\n            hasRole(ORACLE_MANAGER_ROLE,msg.sender),\n            \"Oracler manager has only the permission.\"\n        );\n        require(oraclersSet.length > 1, \"There are no registered oraclers.\");\n        require(\n            isOraclerRegistered(oraclerAddress) == true,\n            \"Oracler does not exist.\"\n        );\n\n        Oraclers memory _oracler = oraclers[oraclerAddress];\n        _oracler.name = value;\n        oraclersSet[_oracler.oraclerId].name = value;\n        emit oracleNameIsChanged(oraclerAddress, value);\n        return false;\n    }\n    /////////////////////////////////////////////////////////////////////////////////////////\n    function getOraclerPopularity(uint256 _index)\n        public\n        view\n        returns (uint256 _popularity)\n    {\n        return oraclersSet[_index].popularity;\n    }\n\n    //Get the oracle numeric popularity\n    function getOraclerNumericPopularity(uint256 _index)\n        public\n        view\n        returns (uint256 _popularity)\n    {\n        return oraclersSet[_index].numericPopularity;\n    }\n\n    //Get the oracler address by index from the set\n    function getOraclerAddress(uint256 _index)\n        public\n        view\n        returns (address _address)\n    {\n        return oraclersSet[_index].owner;\n    }\n\n    function getOraclerId(uint256 _index) public view returns (uint256 _id) {\n        return oraclersSet[_index].oraclerId;\n    }\n\n    //Index 0 belongs to the manager\n    //Avoid re-registering the same oracler\n    function isOraclerRegistered(address oraclerAddress)\n        public\n        view\n        returns (bool)\n    {\n        for (uint256 i = 0; i < oraclersSet.length; i++) {\n            if (oraclersSet[i].owner == oraclerAddress) {\n                return true;\n            }\n        }\n        return false;\n    }\n\n    //Index 0 belongs to the manager\n    //Check the oracler registeration status; active/deactive\n    function isOraclerActive(address oraclerAddress)\n        public\n        view\n        returns (bool)\n    {\n        Oraclers memory _oracler = oraclers[oraclerAddress];\n        if (_oracler.registered == true) {\n            return true;\n        }\n        return false;\n    }\n\n    //Set the number of registered oraclers either active or deactive\n    function setCountRegisteredOraclers(uint256 oraclersLength) private {\n        countOraclers = oraclersLength;\n    }\n\n    //Get the number of registered oraclers\n    function getCountRegisteredOraclers() public view returns (uint256) {\n        return countOraclers;\n    }\n\n    //Get an oracle index from the set by the address\n    function getOraclerIndex(address oracleAddress)\n        public\n        view\n        returns (uint256)\n    {\n        uint256 oraclerId = 0;\n        for (uint256 i = 0; i < oraclersSet.length; i++) {\n            if (oraclersSet[i].owner == oracleAddress) {\n                oraclerId = i;\n                break;\n            }\n        }\n        return oraclerId;\n    }\n\n    //Get registered oraclers either ative/deactive\n    function registeredOraclers(uint256[] memory index)\n        public\n        view\n        returns (\n            // bytes32\n            bytes32[] memory name,\n            address[] memory owners,\n            uint256[] memory popularity,\n            bool[] memory registered,\n            uint256[] memory balance,\n            uint256[] memory oraclerIds\n        )\n    {\n        bytes32[] memory _name = new bytes32[](index.length);\n        address[] memory _owners = new address[](index.length);\n        uint256[] memory _popularity = new uint256[](index.length);\n        bool[] memory _registered = new bool[](index.length);\n        uint256[] memory _balance = new uint256[](index.length);\n        uint256[] memory _ids = new uint256[](index.length);\n\n        for (uint256 i = 0; i < oraclersSet.length; i++) {\n            _name[i] = oraclersSet[i].name;\n            _owners[i] = oraclersSet[i].owner;\n            _popularity[i] = oraclersSet[i].popularity;\n            _registered[i] = oraclersSet[i].registered;\n            _balance[i] = oraclersSet[i].balance;\n            _ids[i] = oraclersSet[i].oraclerId;\n        }\n        // return _name[0];\n        return (_name, _owners, _popularity, _registered, _balance, _ids);\n    }\n\n    //Return registered oraclers address\n    //External use\n    // function registeredOraclersAddress()\n    //     public\n    //     view\n    //     returns (address[] memory _address)\n    // {\n    //     address[] memory oraclerAdd = new address[](countOraclers);\n    //     uint256 index;\n    //     for (uint256 i = 1; i < oraclersSet.length; i++) {\n    //         if (oraclersSet[i].registered == true) {\n    //             oraclerAdd[index] = oraclersSet[i].owner;\n    //             index++;\n    //         }\n    //     }\n    //     return oraclerAdd;\n    // }\n    \n    function isRegistered(address _sender) public view returns (bool){\n        return oraclers[_sender].registered;\n    }\n\n    //Excluding oracler manager and sort existing ones\n    //based on their popularity\n    function sortOraclers(Oraclers[] memory _oraclers)\n        private\n        pure\n        returns (Oraclers[] memory sortedOraclers)\n    {\n        for (uint256 i = 1; i < _oraclers.length; i++) {\n            for (uint256 j = i + 1; j < _oraclers.length; j++) {\n                if (_oraclers[i].popularity > _oraclers[j].popularity) {\n                    Oraclers memory tempOracler = _oraclers[i];\n                    _oraclers[i] = _oraclers[j];\n                    _oraclers[j] = tempOracler;\n                }\n            }\n        }\n        return _oraclers;\n    }\n\n    //Excluding oracler manager and sort existing ones\n    //based on their popularity\n    //An external function\n    function sortOracler(uint256[] memory index)\n        public\n        view\n        returns (\n            bytes32[] memory name,\n            address[] memory owners,\n            uint256[] memory popularity,\n            bool[] memory registered,\n            uint256[] memory balance,\n            uint256[] memory oraclerIds\n        )\n    {\n        bytes32[] memory _name = new bytes32[](index.length);\n        address[] memory _owners = new address[](index.length);\n        uint256[] memory _popularity = new uint256[](index.length);\n        uint256[] memory _numPopularity = new uint256[](index.length);\n        bool[] memory _registered = new bool[](index.length);\n        uint256[] memory _balance = new uint256[](index.length);\n        uint256[] memory _ids = new uint256[](index.length);\n\n        Oraclers[] memory _oraclers = oraclersSet;\n\n        for (uint256 i = 1; i < _oraclers.length; i++) {\n            for (uint256 j = i + 1; j < _oraclers.length; j++) {\n                if (_oraclers[i].popularity > _oraclers[j].popularity) {\n                    Oraclers memory tempOracler = _oraclers[i];\n                    _oraclers[i] = _oraclers[j];\n                    _oraclers[j] = tempOracler;\n                }\n            }\n        }\n        for (uint256 i = 0; i < _oraclers.length; i++) {\n            _name[i] = _oraclers[i].name;\n            _owners[i] = _oraclers[i].owner;\n            _popularity[i] = _oraclers[i].popularity;\n            _numPopularity[i] = _oraclers[i].numericPopularity;\n            _registered[i] = _oraclers[i].registered;\n            _balance[i] = _oraclers[i].balance;\n            _ids[i] = _oraclers[i].oraclerId;\n        }\n        return (_name, _owners, _popularity, _registered, _balance, _ids);\n    }\n\n    //Oracler manager resides at index zero\n    function getOraclersMedian(uint256 _sortedOraclersIndex)\n        public\n        view\n        returns (\n            bytes32 name,\n            address owners,\n            uint256 popularity,\n            bool registered,\n            uint256 balance,\n            uint256 id\n        )\n    {\n        require(_sortedOraclersIndex > 1, \"There are no registered oraclers\");\n        Oraclers[] memory _oraclersSet = sortOraclers(oraclersSet);\n        uint256 value = (_sortedOraclersIndex) % 2;\n        uint256 _median = (_sortedOraclersIndex) / 2;\n        if (value != 0) {\n            _median = _median + 1;\n        }\n        bytes32 _name = _oraclersSet[_median].name;\n        address _owner = _oraclersSet[_median].owner;\n        uint256 _popularity = _oraclersSet[_median].popularity;\n        if (value != 0) {\n            _popularity =\n                (_oraclersSet[_median - 1].popularity + _popularity) /\n                2;\n        }\n        bool _registered = _oraclersSet[_median].registered;\n        uint256 _balance = _oraclersSet[_median].balance;\n        uint256 _id = _oraclersSet[_median].oraclerId;\n        return (_name, _owner, _popularity, _registered, _balance, _id);\n    }\n\n    function getMedianOracler() public view returns (uint256 popularity) {\n        (, , uint256 _popularity, , , ) = getOraclersMedian(oraclersSet.length);\n        return (_popularity);\n    }\n\n    //Oracler manager resides at index zero\n    // function transferStake(address fromOracler, uint256 value) public payable {\n    //     require(fromOracler.balance > value, \"Insufficient fund.\");\n    //     Oraclers memory oracler = oraclers[fromOracler];\n    //     Oraclers memory manager = oraclers[oracleManager];\n    //     oracler.balance -= value;\n    //     manager.balance += value;\n    // }\n    function transferStake()public payable{\n        \n    }\n\n    /////////////////////////////////////////////////////////////////////////////////////////\n    //Return the corresponding index of an oracler\n    function oraclerMappingIndex(address oracler)\n        public\n        view\n        returns (uint256 index)\n    {\n        Oraclers memory _oracle = oraclers[oracler];\n        return _oracle.oraclerId;\n    }\n\n    //Return the list of registered oraclers\n    function getRegisteredOraclersAddress()\n        public\n        view\n        returns (address[] memory _oracles)\n    {\n        return oraclersAddress;\n    }\n}\n",
  "sourcePath": "/mnt/storage/20_projects/50_oracle_amir/new research/aglive_oracle/contracts/Oracle.sol",
  "compiler": {
    "name": "solc",
    "version": "0.8.7+commit.e28d00a7.Emscripten.clang"
  },
  "schemaVersion": "3.4.2",
  "updatedAt": "2021-10-13T03:33:10.246Z",
  "devdoc": {
    "kind": "dev",
    "methods": {},
    "version": 1
  },
  "userdoc": {
    "kind": "user",
    "methods": {},
    "version": 1
  }
}