{
  "contractName": "Request",
  "abi": [
    {
      "inputs": [
        {
          "internalType": "address",
          "name": "_deployedOracle",
          "type": "address"
        }
      ],
      "stateMutability": "nonpayable",
      "type": "constructor"
    },
    {
      "anonymous": false,
      "inputs": [
        {
          "indexed": false,
          "internalType": "uint256",
          "name": "requestId",
          "type": "uint256"
        },
        {
          "indexed": false,
          "internalType": "address[]",
          "name": "oraclerAddress",
          "type": "address[]"
        },
        {
          "indexed": false,
          "internalType": "address[]",
          "name": "from",
          "type": "address[]"
        },
        {
          "indexed": false,
          "internalType": "address[]",
          "name": "to",
          "type": "address[]"
        },
        {
          "indexed": false,
          "internalType": "uint256[]",
          "name": "value",
          "type": "uint256[]"
        }
      ],
      "name": "oraclersToRequestAssigned",
      "type": "event"
    },
    {
      "anonymous": false,
      "inputs": [
        {
          "indexed": true,
          "internalType": "uint256",
          "name": "requestId",
          "type": "uint256"
        },
        {
          "indexed": true,
          "internalType": "bytes32",
          "name": "barcode",
          "type": "bytes32"
        },
        {
          "indexed": true,
          "internalType": "address",
          "name": "sender",
          "type": "address"
        }
      ],
      "name": "requestCreated",
      "type": "event"
    },
    {
      "inputs": [],
      "name": "DEFAULT_ADMIN_ROLE",
      "outputs": [
        {
          "internalType": "bytes32",
          "name": "",
          "type": "bytes32"
        }
      ],
      "stateMutability": "view",
      "type": "function"
    },
    {
      "inputs": [],
      "name": "ORACLE_MANAGER_ROLE",
      "outputs": [
        {
          "internalType": "bytes32",
          "name": "",
          "type": "bytes32"
        }
      ],
      "stateMutability": "view",
      "type": "function"
    },
    {
      "inputs": [
        {
          "internalType": "uint256",
          "name": "",
          "type": "uint256"
        }
      ],
      "name": "finishedRequestsSet",
      "outputs": [
        {
          "internalType": "uint256",
          "name": "requestId",
          "type": "uint256"
        },
        {
          "internalType": "uint256",
          "name": "arrivalTime",
          "type": "uint256"
        },
        {
          "internalType": "address",
          "name": "sender",
          "type": "address"
        },
        {
          "internalType": "bool",
          "name": "isPending",
          "type": "bool"
        },
        {
          "internalType": "bytes32",
          "name": "query",
          "type": "bytes32"
        },
        {
          "internalType": "uint8",
          "name": "flag",
          "type": "uint8"
        }
      ],
      "stateMutability": "view",
      "type": "function"
    },
    {
      "inputs": [
        {
          "internalType": "bytes32",
          "name": "role",
          "type": "bytes32"
        }
      ],
      "name": "getRoleAdmin",
      "outputs": [
        {
          "internalType": "bytes32",
          "name": "",
          "type": "bytes32"
        }
      ],
      "stateMutability": "view",
      "type": "function"
    },
    {
      "inputs": [
        {
          "internalType": "bytes32",
          "name": "role",
          "type": "bytes32"
        },
        {
          "internalType": "address",
          "name": "account",
          "type": "address"
        }
      ],
      "name": "hasRole",
      "outputs": [
        {
          "internalType": "bool",
          "name": "",
          "type": "bool"
        }
      ],
      "stateMutability": "view",
      "type": "function"
    },
    {
      "inputs": [
        {
          "internalType": "uint256",
          "name": "",
          "type": "uint256"
        }
      ],
      "name": "requestSet",
      "outputs": [
        {
          "internalType": "uint256",
          "name": "requestId",
          "type": "uint256"
        },
        {
          "internalType": "uint256",
          "name": "arrivalTime",
          "type": "uint256"
        },
        {
          "internalType": "address",
          "name": "sender",
          "type": "address"
        },
        {
          "internalType": "bool",
          "name": "isPending",
          "type": "bool"
        },
        {
          "internalType": "bytes32",
          "name": "query",
          "type": "bytes32"
        },
        {
          "internalType": "uint8",
          "name": "flag",
          "type": "uint8"
        }
      ],
      "stateMutability": "view",
      "type": "function"
    },
    {
      "inputs": [
        {
          "internalType": "uint256",
          "name": "",
          "type": "uint256"
        }
      ],
      "name": "requests",
      "outputs": [
        {
          "internalType": "uint256",
          "name": "requestId",
          "type": "uint256"
        },
        {
          "internalType": "uint256",
          "name": "arrivalTime",
          "type": "uint256"
        },
        {
          "internalType": "address",
          "name": "sender",
          "type": "address"
        },
        {
          "internalType": "bool",
          "name": "isPending",
          "type": "bool"
        },
        {
          "internalType": "bytes32",
          "name": "query",
          "type": "bytes32"
        },
        {
          "internalType": "uint8",
          "name": "flag",
          "type": "uint8"
        }
      ],
      "stateMutability": "view",
      "type": "function"
    },
    {
      "inputs": [
        {
          "internalType": "bytes32",
          "name": "role",
          "type": "bytes32"
        },
        {
          "internalType": "address",
          "name": "account",
          "type": "address"
        }
      ],
      "name": "revokeRole",
      "outputs": [],
      "stateMutability": "nonpayable",
      "type": "function"
    },
    {
      "inputs": [
        {
          "internalType": "address",
          "name": "_deployedOracle",
          "type": "address"
        }
      ],
      "name": "accessDeployedOracleContract",
      "outputs": [
        {
          "internalType": "bool",
          "name": "",
          "type": "bool"
        }
      ],
      "stateMutability": "nonpayable",
      "type": "function"
    },
    {
      "inputs": [
        {
          "internalType": "uint256",
          "name": "_requestId",
          "type": "uint256"
        }
      ],
      "name": "activeRequests",
      "outputs": [
        {
          "internalType": "uint256",
          "name": "requestId",
          "type": "uint256"
        },
        {
          "internalType": "uint256",
          "name": "arrivalTime",
          "type": "uint256"
        },
        {
          "internalType": "address",
          "name": "sender",
          "type": "address"
        },
        {
          "internalType": "bool",
          "name": "isPending",
          "type": "bool"
        },
        {
          "internalType": "bytes32",
          "name": "query",
          "type": "bytes32"
        },
        {
          "internalType": "address[]",
          "name": "oraclers",
          "type": "address[]"
        },
        {
          "internalType": "uint256[]",
          "name": "stakes",
          "type": "uint256[]"
        }
      ],
      "stateMutability": "view",
      "type": "function"
    },
    {
      "inputs": [
        {
          "internalType": "bytes32",
          "name": "barcode",
          "type": "bytes32"
        }
      ],
      "name": "createRequest",
      "outputs": [
        {
          "internalType": "uint256",
          "name": "_requestId",
          "type": "uint256"
        }
      ],
      "stateMutability": "payable",
      "type": "function"
    },
    {
      "inputs": [
        {
          "internalType": "uint256",
          "name": "requestId",
          "type": "uint256"
        }
      ],
      "name": "isRequestCreated",
      "outputs": [
        {
          "internalType": "bool",
          "name": "value",
          "type": "bool"
        }
      ],
      "stateMutability": "view",
      "type": "function"
    },
    {
      "inputs": [
        {
          "internalType": "uint256",
          "name": "requestId",
          "type": "uint256"
        }
      ],
      "name": "assignOraclersToRequest",
      "outputs": [],
      "stateMutability": "nonpayable",
      "type": "function"
    },
    {
      "inputs": [],
      "name": "countSubmittedRequests",
      "outputs": [
        {
          "internalType": "uint256",
          "name": "",
          "type": "uint256"
        }
      ],
      "stateMutability": "view",
      "type": "function"
    },
    {
      "inputs": [
        {
          "internalType": "uint256",
          "name": "requestId",
          "type": "uint256"
        }
      ],
      "name": "getRequestQuery",
      "outputs": [
        {
          "internalType": "bytes32",
          "name": "",
          "type": "bytes32"
        }
      ],
      "stateMutability": "view",
      "type": "function"
    },
    {
      "inputs": [
        {
          "internalType": "uint256",
          "name": "requestId",
          "type": "uint256"
        }
      ],
      "name": "getRequestStakes",
      "outputs": [
        {
          "internalType": "uint256[]",
          "name": "stakes",
          "type": "uint256[]"
        }
      ],
      "stateMutability": "view",
      "type": "function"
    }
  ],
  "bytecode": "0x60806040523480156200001157600080fd5b5060405162002c0638038062002c06833981810160405281019062000037919062000201565b620000697f1effbbff9c66c5e59634f24fe842750c60d18891155c32dd155fc2d661a4c86d33620000e360201b60201c565b6200009b7fced6982f480260bdd8ad5cb18ff2854f0306d78d904ad6cc107e8f3a0f526c1833620000e360201b60201c565b80600160006101000a81548173ffffffffffffffffffffffffffffffffffffffff021916908373ffffffffffffffffffffffffffffffffffffffff1602179055505062000286565b620000f58282620000f960201b60201c565b5050565b6200010b82826200018060201b60201c565b6200017c57600160008084815260200190815260200160002060000160008373ffffffffffffffffffffffffffffffffffffffff1673ffffffffffffffffffffffffffffffffffffffff16815260200190815260200160002060006101000a81548160ff0219169083151502179055505b5050565b600080600084815260200190815260200160002060000160008373ffffffffffffffffffffffffffffffffffffffff1673ffffffffffffffffffffffffffffffffffffffff16815260200190815260200160002060009054906101000a900460ff16905092915050565b600081519050620001fb816200026c565b92915050565b6000602082840312156200021a576200021962000267565b5b60006200022a84828501620001ea565b91505092915050565b6000620002408262000247565b9050919050565b600073ffffffffffffffffffffffffffffffffffffffff82169050919050565b600080fd5b620002778162000233565b81146200028357600080fd5b50565b61297080620002966000396000f3fe6080604052600436106100f35760003560e01c80638495157d1161008a578063bfc69e1c11610059578063bfc69e1c146103c5578063d547741f146103f0578063d7b20d9714610419578063fdac3cf314610449576100f3565b80638495157d146102f557806391d14854146103325780639a33d1d71461036f578063a217fddf1461039a576100f3565b80637955a290116100c65780637955a290146101f75780637a7f3d5b146102345780637b9494dd1461027657806381d12c58146102b3576100f3565b80631e75300b146100f8578063248a9ca31461013a57806350cf4061146101775780635db5e8a8146101ba575b600080fd5b34801561010457600080fd5b5061011f600480360381019061011a9190611da3565b610472565b6040516101319695949392919061239a565b60405180910390f35b34801561014657600080fd5b50610161600480360381019061015c9190611d36565b6104f8565b60405161016e91906121b6565b60405180910390f35b34801561018357600080fd5b5061019e60048036038101906101999190611da3565b610517565b6040516101b1979695949392919061231d565b60405180910390f35b3480156101c657600080fd5b506101e160048036038101906101dc9190611caf565b610799565b6040516101ee919061219b565b60405180910390f35b34801561020357600080fd5b5061021e60048036038101906102199190611da3565b610890565b60405161022b91906121b6565b60405180910390f35b34801561024057600080fd5b5061025b60048036038101906102569190611da3565b6108bf565b60405161026d9695949392919061239a565b60405180910390f35b34801561028257600080fd5b5061029d60048036038101906102989190611da3565b610945565b6040516102aa9190612179565b60405180910390f35b3480156102bf57600080fd5b506102da60048036038101906102d59190611da3565b6109c2565b6040516102ec9695949392919061239a565b60405180910390f35b34801561030157600080fd5b5061031c60048036038101906103179190611da3565b610a38565b604051610329919061219b565b60405180910390f35b34801561033e57600080fd5b5061035960048036038101906103549190611d63565b610a8b565b604051610366919061219b565b60405180910390f35b34801561037b57600080fd5b50610384610af5565b6040516103919190612293565b60405180910390f35b3480156103a657600080fd5b506103af610b02565b6040516103bc91906121b6565b60405180910390f35b3480156103d157600080fd5b506103da610b26565b6040516103e791906121b6565b60405180910390f35b3480156103fc57600080fd5b5061041760048036038101906104129190611d63565b610b4a565b005b610433600480360381019061042e9190611d36565b610b6c565b6040516104409190612293565b60405180910390f35b34801561045557600080fd5b50610470600480360381019061046b9190611da3565b610f47565b005b6007818154811061048257600080fd5b90600052602060002090600702016000915090508060000154908060010154908060020160009054906101000a900473ffffffffffffffffffffffffffffffffffffffff16908060020160149054906101000a900460ff16908060030154908060060160009054906101000a900460ff16905086565b6000806000838152602001908152602001600020600101549050919050565b60008060008060006060806001151561052f89610a38565b151514610571576040517f08c379a000000000000000000000000000000000000000000000000000000000815260040161056890612233565b60405180910390fd5b60078881548110610585576105846126df565b5b906000526020600020906007020160000154600789815481106105ab576105aa6126df565b5b90600052602060002090600702016001015460078a815481106105d1576105d06126df565b5b906000526020600020906007020160020160009054906101000a900473ffffffffffffffffffffffffffffffffffffffff1660078b81548110610617576106166126df565b5b906000526020600020906007020160020160149054906101000a900460ff1660078c8154811061064a576106496126df565b5b90600052602060002090600702016003015460078d815481106106705761066f6126df565b5b906000526020600020906007020160040160078e81548110610695576106946126df565b5b90600052602060002090600702016005018180548060200260200160405190810160405280929190818152602001828054801561072757602002820191906000526020600020905b8160009054906101000a900473ffffffffffffffffffffffffffffffffffffffff1673ffffffffffffffffffffffffffffffffffffffff16815260200190600101908083116106dd575b505050505091508080548060200260200160405190810160405280929190818152602001828054801561077957602002820191906000526020600020905b815481526020019060010190808311610765575b505050505090509650965096509650965096509650919395979092949650565b60006107c57f1effbbff9c66c5e59634f24fe842750c60d18891155c32dd155fc2d661a4c86d33610a8b565b15610805576040517f08c379a00000000000000000000000000000000000000000000000000000000081526004016107fc90612273565b60405180910390fd5b81600160006101000a81548173ffffffffffffffffffffffffffffffffffffffff021916908373ffffffffffffffffffffffffffffffffffffffff16021790555081600260006101000a81548173ffffffffffffffffffffffffffffffffffffffff021916908373ffffffffffffffffffffffffffffffffffffffff16021790555060019050919050565b6000600782815481106108a6576108a56126df565b5b9060005260206000209060070201600301549050919050565b600881815481106108cf57600080fd5b90600052602060002090600702016000915090508060000154908060010154908060020160009054906101000a900473ffffffffffffffffffffffffffffffffffffffff16908060020160149054906101000a900460ff16908060030154908060060160009054906101000a900460ff16905086565b60606007828154811061095b5761095a6126df565b5b90600052602060002090600702016005018054806020026020016040519081016040528092919081815260200182805480156109b657602002820191906000526020600020905b8154815260200190600101908083116109a2575b50505050509050919050565b60066020528060005260406000206000915090508060000154908060010154908060020160009054906101000a900473ffffffffffffffffffffffffffffffffffffffff16908060020160149054906101000a900460ff16908060030154908060060160009054906101000a900460ff16905086565b6000600160078381548110610a5057610a4f6126df565b5b906000526020600020906007020160060160009054906101000a900460ff1660ff161415610a815760019050610a86565b600090505b919050565b600080600084815260200190815260200160002060000160008373ffffffffffffffffffffffffffffffffffffffff1673ffffffffffffffffffffffffffffffffffffffff16815260200190815260200160002060009054906101000a900460ff16905092915050565b6000600780549050905090565b7f1effbbff9c66c5e59634f24fe842750c60d18891155c32dd155fc2d661a4c86d81565b7fced6982f480260bdd8ad5cb18ff2854f0306d78d904ad6cc107e8f3a0f526c1881565b610b53826104f8565b610b5d81336117e5565b610b678383611882565b505050565b6000806006600060035481526020019081526020016000206040518061010001604052908160008201548152602001600182015481526020016002820160009054906101000a900473ffffffffffffffffffffffffffffffffffffffff1673ffffffffffffffffffffffffffffffffffffffff1673ffffffffffffffffffffffffffffffffffffffff1681526020016002820160149054906101000a900460ff161515151581526020016003820154815260200160048201805480602002602001604051908101604052809291908181526020018280548015610ca457602002820191906000526020600020905b8160009054906101000a900473ffffffffffffffffffffffffffffffffffffffff1673ffffffffffffffffffffffffffffffffffffffff1681526020019060010190808311610c5a575b5050505050815260200160058201805480602002602001604051908101604052809291908181526020018280548015610cfc57602002820191906000526020600020905b815481526020019060010190808311610ce8575b505050505081526020016006820160009054906101000a900460ff1660ff1660ff168152505090504281602001818152505060035481600001818152505060018160600190151590811515815250508281608001818152505033816040019073ffffffffffffffffffffffffffffffffffffffff16908173ffffffffffffffffffffffffffffffffffffffff168152505060018160e0019060ff16908160ff16815250506004600354908060018154018082558091505060019003906000526020600020016000909190919091505560036000815480929190610dde90612667565b91905055506007819080600181540180825580915050600190039060005260206000209060070201600090919091909150600082015181600001556020820151816001015560408201518160020160006101000a81548173ffffffffffffffffffffffffffffffffffffffff021916908373ffffffffffffffffffffffffffffffffffffffff16021790555060608201518160020160146101000a81548160ff0219169083151502179055506080820151816003015560a0820151816004019080519060200190610eb0929190611b3d565b5060c0820151816005019080519060200190610ecd929190611bc7565b5060e08201518160060160006101000a81548160ff021916908360ff16021790555050503373ffffffffffffffffffffffffffffffffffffffff168382600001517f2bf096363a08e67a10ce9ee3ebb85043fcd7a742d95af947f669779b7d75490560405160405180910390a48060000151915050919050565b6000600160009054906101000a900473ffffffffffffffffffffffffffffffffffffffff1673ffffffffffffffffffffffffffffffffffffffff166373b360796040518163ffffffff1660e01b815260040160206040518083038186803b158015610fb157600080fd5b505afa158015610fc5573d6000803e3d6000fd5b505050506040513d601f19601f82011682018060405250810190610fe99190611dd0565b90506000600160009054906101000a900473ffffffffffffffffffffffffffffffffffffffff1673ffffffffffffffffffffffffffffffffffffffff1663343cb6be6040518163ffffffff1660e01b815260040160206040518083038186803b15801561105557600080fd5b505afa158015611069573d6000803e3d6000fd5b505050506040513d601f19601f8201168201806040525081019061108d9190611dd0565b905060008267ffffffffffffffff8111156110ab576110aa61270e565b5b6040519080825280602002602001820160405280156110d95781602001602082028036833780820191505090505b50905060008367ffffffffffffffff8111156110f8576110f761270e565b5b6040519080825280602002602001820160405280156111265781602001602082028036833780820191505090505b50905060008467ffffffffffffffff8111156111455761114461270e565b5b6040519080825280602002602001820160405280156111735781602001602082028036833780820191505090505b50905060008086116111ba576040517f08c379a00000000000000000000000000000000000000000000000000000000081526004016111b1906121f3565b60405180910390fd5b600115156111c788610a38565b151514611209576040517f08c379a000000000000000000000000000000000000000000000000000000000815260040161120090612253565b60405180910390fd5b6000600160009054906101000a900473ffffffffffffffffffffffffffffffffffffffff1673ffffffffffffffffffffffffffffffffffffffff1663b6d8f2d56040518163ffffffff1660e01b815260040160206040518083038186803b15801561127357600080fd5b505afa158015611287573d6000803e3d6000fd5b505050506040513d601f19601f820116820180604052508101906112ab9190611dd0565b90506000600190505b87811015611777576000600160009054906101000a900473ffffffffffffffffffffffffffffffffffffffff1673ffffffffffffffffffffffffffffffffffffffff1663a5fde496836040518263ffffffff1660e01b81526004016113199190612293565b60206040518083038186803b15801561133157600080fd5b505afa158015611345573d6000803e3d6000fd5b505050506040513d601f19601f820116820180604052508101906113699190611dd0565b9050828110611763576000600160009054906101000a900473ffffffffffffffffffffffffffffffffffffffff1673ffffffffffffffffffffffffffffffffffffffff166304e18b53846040518263ffffffff1660e01b81526004016113cf9190612293565b60206040518083038186803b1580156113e757600080fd5b505afa1580156113fb573d6000803e3d6000fd5b505050506040513d601f19601f8201168201806040525081019061141f9190611cdc565b9050600160009054906101000a900473ffffffffffffffffffffffffffffffffffffffff1673ffffffffffffffffffffffffffffffffffffffff1663a64c572d600260009054906101000a900473ffffffffffffffffffffffffffffffffffffffff168b6040518363ffffffff1660e01b81526004016114a0929190612150565b602060405180830381600087803b1580156114ba57600080fd5b505af11580156114ce573d6000803e3d6000fd5b505050506040513d601f19601f820116820180604052508101906114f29190611d09565b50600160009054906101000a900473ffffffffffffffffffffffffffffffffffffffff1673ffffffffffffffffffffffffffffffffffffffff16639fbfb78b828b6040518363ffffffff1660e01b8152600401611550929190612150565b602060405180830381600087803b15801561156a57600080fd5b505af115801561157e573d6000803e3d6000fd5b505050506040513d601f19601f820116820180604052508101906115a29190611d09565b5060078b815481106115b7576115b66126df565b5b9060005260206000209060070201600401819080600181540180825580915050600190039060005260206000200160009091909190916101000a81548173ffffffffffffffffffffffffffffffffffffffff021916908373ffffffffffffffffffffffffffffffffffffffff16021790555060078b8154811061163d5761163c6126df565b5b9060005260206000209060070201600501899080600181540180825580915050600190039060005260206000200160009091909190915055600260009054906101000a900473ffffffffffffffffffffffffffffffffffffffff168786815181106116ab576116aa6126df565b5b602002602001019073ffffffffffffffffffffffffffffffffffffffff16908173ffffffffffffffffffffffffffffffffffffffff1681525050808886815181106116f9576116f86126df565b5b602002602001019073ffffffffffffffffffffffffffffffffffffffff16908173ffffffffffffffffffffffffffffffffffffffff168152505088868681518110611747576117466126df565b5b602002602001018181525050848061175e90612667565b955050505b50808061176f90612667565b9150506112b4565b507f7f0d1a12baee72ac1aaa832b2e39e4ab92e67f66456b7530f0d43eab07e7661e8860078a815481106117ae576117ad6126df565b5b90600052602060002090600702016004018787876040516117d39594939291906122ae565b60405180910390a15050505050505050565b6117ef8282610a8b565b61187e576118148173ffffffffffffffffffffffffffffffffffffffff166014611901565b6118228360001c6020611901565b604051602001611833929190612116565b6040516020818303038152906040526040517f08c379a000000000000000000000000000000000000000000000000000000000815260040161187591906121d1565b60405180910390fd5b5050565b61188c8282610a8b565b156118fd57600080600084815260200190815260200160002060000160008373ffffffffffffffffffffffffffffffffffffffff1673ffffffffffffffffffffffffffffffffffffffff16815260200190815260200160002060006101000a81548160ff0219169083151502179055505b5050565b6060600060028360026119149190612517565b61191e91906124c1565b67ffffffffffffffff8111156119375761193661270e565b5b6040519080825280601f01601f1916602001820160405280156119695781602001600182028036833780820191505090505b5090507f3000000000000000000000000000000000000000000000000000000000000000816000815181106119a1576119a06126df565b5b60200101907effffffffffffffffffffffffffffffffffffffffffffffffffffffffffffff1916908160001a9053507f780000000000000000000000000000000000000000000000000000000000000081600181518110611a0557611a046126df565b5b60200101907effffffffffffffffffffffffffffffffffffffffffffffffffffffffffffff1916908160001a90535060006001846002611a459190612517565b611a4f91906124c1565b90505b6001811115611aef577f3031323334353637383961626364656600000000000000000000000000000000600f861660108110611a9157611a906126df565b5b1a60f81b828281518110611aa857611aa76126df565b5b60200101907effffffffffffffffffffffffffffffffffffffffffffffffffffffffffffff1916908160001a905350600485901c945080611ae890612623565b9050611a52565b5060008414611b33576040517f08c379a0000000000000000000000000000000000000000000000000000000008152600401611b2a90612213565b60405180910390fd5b8091505092915050565b828054828255906000526020600020908101928215611bb6579160200282015b82811115611bb55782518260006101000a81548173ffffffffffffffffffffffffffffffffffffffff021916908373ffffffffffffffffffffffffffffffffffffffff16021790555091602001919060010190611b5d565b5b509050611bc39190611c14565b5090565b828054828255906000526020600020908101928215611c03579160200282015b82811115611c02578251825591602001919060010190611be7565b5b509050611c109190611c14565b5090565b5b80821115611c2d576000816000905550600101611c15565b5090565b600081359050611c40816128de565b92915050565b600081519050611c55816128de565b92915050565b600081519050611c6a816128f5565b92915050565b600081359050611c7f8161290c565b92915050565b600081359050611c9481612923565b92915050565b600081519050611ca981612923565b92915050565b600060208284031215611cc557611cc4612750565b5b6000611cd384828501611c31565b91505092915050565b600060208284031215611cf257611cf1612750565b5b6000611d0084828501611c46565b91505092915050565b600060208284031215611d1f57611d1e612750565b5b6000611d2d84828501611c5b565b91505092915050565b600060208284031215611d4c57611d4b612750565b5b6000611d5a84828501611c70565b91505092915050565b60008060408385031215611d7a57611d79612750565b5b6000611d8885828601611c70565b9250506020611d9985828601611c31565b9150509250929050565b600060208284031215611db957611db8612750565b5b6000611dc784828501611c85565b91505092915050565b600060208284031215611de657611de5612750565b5b6000611df484828501611c9a565b91505092915050565b6000611e098383611e2d565b60208301905092915050565b6000611e2183836120e9565b60208301905092915050565b611e3681612591565b82525050565b611e4581612591565b82525050565b6000611e5682612430565b611e608185612483565b9350611e6b836123fb565b8060005b83811015611e9c578151611e838882611dfd565b9750611e8e8361245c565b925050600181019050611e6f565b5085935050505092915050565b6000611eb48261243b565b611ebe8185612483565b9350611ec98361240b565b8060005b83811015611f0157611ede8261273d565b611ee88882611dfd565b9750611ef383612469565b925050600181019050611ecd565b5085935050505092915050565b6000611f1982612446565b611f238185612494565b9350611f2e83612420565b8060005b83811015611f5f578151611f468882611e15565b9750611f5183612476565b925050600181019050611f32565b5085935050505092915050565b611f75816125a3565b82525050565b611f84816125af565b82525050565b6000611f9582612451565b611f9f81856124a5565b9350611faf8185602086016125f0565b611fb881612755565b840191505092915050565b6000611fce82612451565b611fd881856124b6565b9350611fe88185602086016125f0565b80840191505092915050565b60006120016020836124a5565b915061200c82612773565b602082019050919050565b60006120246020836124a5565b915061202f8261279c565b602082019050919050565b6000612047602a836124a5565b9150612052826127c5565b604082019050919050565b600061206a6017836124a5565b915061207582612814565b602082019050919050565b600061208d6021836124a5565b91506120988261283d565b604082019050919050565b60006120b06017836124b6565b91506120bb8261288c565b601782019050919050565b60006120d36011836124b6565b91506120de826128b5565b601182019050919050565b6120f2816125d9565b82525050565b612101816125d9565b82525050565b612110816125e3565b82525050565b6000612121826120a3565b915061212d8285611fc3565b9150612138826120c6565b91506121448284611fc3565b91508190509392505050565b60006040820190506121656000830185611e3c565b61217260208301846120f8565b9392505050565b600060208201905081810360008301526121938184611f0e565b905092915050565b60006020820190506121b06000830184611f6c565b92915050565b60006020820190506121cb6000830184611f7b565b92915050565b600060208201905081810360008301526121eb8184611f8a565b905092915050565b6000602082019050818103600083015261220c81611ff4565b9050919050565b6000602082019050818103600083015261222c81612017565b9050919050565b6000602082019050818103600083015261224c8161203a565b9050919050565b6000602082019050818103600083015261226c8161205d565b9050919050565b6000602082019050818103600083015261228c81612080565b9050919050565b60006020820190506122a860008301846120f8565b92915050565b600060a0820190506122c360008301886120f8565b81810360208301526122d58187611ea9565b905081810360408301526122e98186611e4b565b905081810360608301526122fd8185611e4b565b905081810360808301526123118184611f0e565b90509695505050505050565b600060e082019050612332600083018a6120f8565b61233f60208301896120f8565b61234c6040830188611e3c565b6123596060830187611f6c565b6123666080830186611f7b565b81810360a08301526123788185611e4b565b905081810360c083015261238c8184611f0e565b905098975050505050505050565b600060c0820190506123af60008301896120f8565b6123bc60208301886120f8565b6123c96040830187611e3c565b6123d66060830186611f6c565b6123e36080830185611f7b565b6123f060a0830184612107565b979650505050505050565b6000819050602082019050919050565b60008190508160005260206000209050919050565b6000819050602082019050919050565b600081519050919050565b600081549050919050565b600081519050919050565b600081519050919050565b6000602082019050919050565b6000600182019050919050565b6000602082019050919050565b600082825260208201905092915050565b600082825260208201905092915050565b600082825260208201905092915050565b600081905092915050565b60006124cc826125d9565b91506124d7836125d9565b9250827fffffffffffffffffffffffffffffffffffffffffffffffffffffffffffffffff0382111561250c5761250b6126b0565b5b828201905092915050565b6000612522826125d9565b915061252d836125d9565b9250817fffffffffffffffffffffffffffffffffffffffffffffffffffffffffffffffff0483118215151615612566576125656126b0565b5b828202905092915050565b600073ffffffffffffffffffffffffffffffffffffffff82169050919050565b600061259c826125b9565b9050919050565b60008115159050919050565b6000819050919050565b600073ffffffffffffffffffffffffffffffffffffffff82169050919050565b6000819050919050565b600060ff82169050919050565b60005b8381101561260e5780820151818401526020810190506125f3565b8381111561261d576000848401525b50505050565b600061262e826125d9565b91506000821415612642576126416126b0565b5b600182039050919050565b600061266061265b83612766565b612571565b9050919050565b6000612672826125d9565b91507fffffffffffffffffffffffffffffffffffffffffffffffffffffffffffffffff8214156126a5576126a46126b0565b5b600182019050919050565b7f4e487b7100000000000000000000000000000000000000000000000000000000600052601160045260246000fd5b7f4e487b7100000000000000000000000000000000000000000000000000000000600052603260045260246000fd5b7f4e487b7100000000000000000000000000000000000000000000000000000000600052604160045260246000fd5b6000612749825461264d565b9050919050565b600080fd5b6000601f19601f8301169050919050565b60008160001c9050919050565b7f546865726520617265206e6f2072656769737465726564206f7261636c65732e600082015250565b7f537472696e67733a20686578206c656e67746820696e73756666696369656e74600082015250565b7f5468657265206973206e6f20726571756573742077697468207468652073706560008201527f6369666965642069642e00000000000000000000000000000000000000000000602082015250565b7f5265717565737420646f6573206e6f742065786973742e000000000000000000600082015250565b7f4f6e6c792061646d696e2063616e20736574206f7261636c652061646472657360008201527f7300000000000000000000000000000000000000000000000000000000000000602082015250565b7f416363657373436f6e74726f6c3a206163636f756e7420000000000000000000600082015250565b7f206973206d697373696e6720726f6c6520000000000000000000000000000000600082015250565b6128e781612591565b81146128f257600080fd5b50565b6128fe816125a3565b811461290957600080fd5b50565b612915816125af565b811461292057600080fd5b50565b61292c816125d9565b811461293757600080fd5b5056fea26469706673582212205b407dd0b6d1a84495e9985d28f53993bd3b12cef998b9ce24c73f9be70f339d64736f6c63430008070033",
  "immutableReferences": {},
  "source": "// SPDX-License-Identifier: GPL-3.0-or-later\npragma solidity >=0.6.0;\nimport \"./Oracle.sol\";\n// import \"@openzeppelin/contracts/access/AccessControl.sol\";\nimport \"./AccessControl.sol\";\n\ncontract Request is AccessControl {\n    Oracle oracle;\n    address oracleManager;\n    uint256 nextRequestId;\n    uint256[] private requestsMappingIndex;\n    uint256 registeredOraclers;\n    \n    // uint256 public payment;\n    \n    constructor(address _deployedOracle){\n        _setupRole(DEFAULT_ADMIN_ROLE,msg.sender);\n        _setupRole(ORACLE_MANAGER_ROLE,msg.sender);\n        oracle = Oracle(_deployedOracle);\n        // 100gwei\n        // payment = 100000000000 wei;\n    }\n    \n    // function changePayment(uint256 p){\n    //     require(hasRole(DEFAULT_ADMIN_ROLE,msg.sender),\"Only admin can change payment\");\n    //     payment = p;\n    // }\n\n    //Request struct for holding the object\n    struct Requests {\n        uint256 requestId;\n        uint256 arrivalTime;\n        address sender;\n        bool isPending;\n        bytes32 query;\n        address[] oraclers;\n        uint256[] stakes;\n        uint8 flag;\n    }\n\n    // Event for creation of a request\n    event requestCreated(\n        uint256 indexed requestId,\n        bytes32 indexed barcode,\n        address indexed sender\n    );\n    //Event for assiging oracles to request\n    event oraclersToRequestAssigned(\n        uint256 requestId,\n        address[] oraclerAddress,\n        address[] from,\n        address[] to,\n        uint256[] value\n    );\n    // event transferOraclerBond(address[] from, address[] to, uint256[] value);\n\n    mapping(uint256 => Requests) public requests;\n    Requests[] public requestSet;\n    Requests[] public finishedRequestsSet;\n\n    //Set the manager oracle address\n    // function setOraclerManagerAddress() public {\n    //     oracleManager = oracle.getOracleManagerAddress();\n    // }\n\n    //Get the manager oracle address\n    // function getOraclerManagerAddress() public view returns (address) {\n    //     return oracleManager;\n    // }\n\n    //Get the registered oracles number\n    // function countRegisteredOraclers() public view returns (uint256) {\n    //     return oracle.getCountRegisteredOraclers();\n    // }\n\n    //Initialize the oracle contract address\n    function accessDeployedOracleContract(address _deployedOracle)\n        public\n        returns (bool)\n    {   require(!hasRole(DEFAULT_ADMIN_ROLE,msg.sender),\"Only admin can set oracle address\");\n        oracle = Oracle(_deployedOracle);\n        oracleManager = _deployedOracle;\n        // setOraclerManagerAddress();\n        return true;\n    }\n\n    //Get a request either pending/non-pending\n    function activeRequests(uint256 _requestId)\n        public\n        view\n        returns (\n            uint256 requestId,\n            uint256 arrivalTime,\n            address sender,\n            bool isPending,\n            bytes32 query,\n            address[] memory oraclers,\n            uint256[] memory stakes\n        )\n    {\n        require(\n            isRequestCreated(_requestId) == true,\n            \"There is no request with the specified id.\"\n        );\n        return (\n            requestSet[_requestId].requestId,\n            requestSet[_requestId].arrivalTime,\n            requestSet[_requestId].sender,\n            requestSet[_requestId].isPending,\n            requestSet[_requestId].query,\n            requestSet[_requestId].oraclers,\n            requestSet[_requestId].stakes\n        );\n    }\n\n    //Pass a string request for fetching information\n    function createRequest(bytes32 barcode)\n        public payable\n        returns (uint256 _requestId)\n    {\n        Requests memory _request = requests[nextRequestId];\n        _request.arrivalTime = block.timestamp;\n        _request.requestId = nextRequestId;\n        _request.isPending = true;\n        _request.query = barcode;\n        _request.sender = msg.sender;\n        _request.flag = 1;\n        \n        requestsMappingIndex.push(nextRequestId);\n        nextRequestId++;\n        requestSet.push(_request);\n        emit requestCreated(_request.requestId, barcode, msg.sender);\n        return _request.requestId;\n    }\n\n    //Check the requestId exists\n    //  \n    function isRequestCreated(uint256 requestId)\n        public\n        view\n        returns (bool value)\n    {\n        // value = false;\n        // if (requestSet.length > 0) {\n        //     for (uint256 i = 0; i < requestSet.length; i++) {\n        //         Requests storage _request = requestSet[i];\n        //         if (_request.requestId == requestId) {\n        //             value = true;\n        //             break;\n        //         }\n        //     }\n        // }\n        // return value;\n        if (requestSet[requestId].flag == 1) return true;\n        return false;\n    }\n\n    //Return the median oracle popularity for oracle selection\n    // function getMedianOraclerPopularity() public view returns (uint256) {\n    //     return oracle.getMedianOracler();\n    // }\n\n    //Assign oraclers to requests for fetching information\n    //Index zero belongs to the oraceler manager\n    function assignOraclersToRequest(uint256 requestId) public {\n        uint256 countOraclers = oracle.getCountRegisteredOraclers();\n        uint256 stakeThreshold = oracle.getStakeThreshold();\n        address[] memory from = new address[](countOraclers);\n        address[] memory to = new address[](countOraclers);\n        uint256[] memory values = new uint256[](countOraclers);\n        // address _oraclerManager = getOraclerManagerAddress();\n        uint256 index;\n\n        require(countOraclers > 0, \"There are no registered oracles.\");\n        require(isRequestCreated(requestId) == true, \"Request does not exist.\");\n        uint256 _popularity = oracle.getMedianOracler();\n        for (uint256 i = 1; i < countOraclers; i++) {\n            uint256 _oraclerPopularity = oracle.getOraclerPopularity(i);\n            if (_oraclerPopularity >= _popularity) {\n                address _oracler = oracle.getOraclerAddress(i);\n                oracle.increaseOraclerBalance(\n                    oracleManager,\n                    stakeThreshold\n                );\n                oracle.decreaseOraclerBalance(_oracler, stakeThreshold);\n                requestSet[requestId].oraclers.push(_oracler);\n                requestSet[requestId].stakes.push(stakeThreshold);\n                to[index] = oracleManager;\n                from[index] = _oracler;\n                values[index] = stakeThreshold;\n                index++;\n            }\n        }\n\n        emit oraclersToRequestAssigned(\n            requestId,\n            requestSet[requestId].oraclers,\n            from,\n            to,\n            values\n        );\n    }\n\n    //Return the number of submitted requests\n    function countSubmittedRequests() public view returns (uint256) {\n        return requestSet.length;\n    }\n\n    //Return the request query\n    function getRequestQuery(uint256 requestId) public view returns (bytes32) {\n        return requestSet[requestId].query;\n    }\n\n    //Get the stake per request\n    function getRequestStakes(uint256 requestId)\n        public\n        view\n        returns (uint256[] memory stakes)\n    {\n        return requestSet[requestId].stakes;\n    }\n}\n",
  "sourcePath": "/mnt/storage/20_projects/50_oracle_amir/new research/aglive_oracle/contracts/Request.sol",
  "compiler": {
    "name": "solc",
    "version": "0.8.7+commit.e28d00a7.Emscripten.clang"
  },
  "schemaVersion": "3.4.2",
  "updatedAt": "2021-10-13T03:33:10.292Z",
  "devdoc": {
    "kind": "dev",
    "methods": {},
    "version": 1
  },
  "userdoc": {
    "kind": "user",
    "methods": {},
    "version": 1
  }
}