{
  "contractName": "Response",
  "abi": [
    {
      "inputs": [
        {
          "internalType": "address",
          "name": "_deployedOracle",
          "type": "address"
        },
        {
          "internalType": "address",
          "name": "_deployedRequest",
          "type": "address"
        }
      ],
      "stateMutability": "nonpayable",
      "type": "constructor"
    },
    {
      "anonymous": false,
      "inputs": [
        {
          "indexed": false,
          "internalType": "uint256",
          "name": "requestId",
          "type": "uint256"
        },
        {
          "indexed": false,
          "internalType": "address",
          "name": "_address",
          "type": "address"
        }
      ],
      "name": "responseCreated",
      "type": "event"
    },
    {
      "anonymous": false,
      "inputs": [
        {
          "indexed": false,
          "internalType": "uint256",
          "name": "responseId",
          "type": "uint256"
        },
        {
          "indexed": false,
          "internalType": "bytes32",
          "name": "outcome",
          "type": "bytes32"
        },
        {
          "indexed": false,
          "internalType": "address",
          "name": "owner",
          "type": "address"
        }
      ],
      "name": "responseFinalized",
      "type": "event"
    },
    {
      "inputs": [],
      "name": "DEFAULT_ADMIN_ROLE",
      "outputs": [
        {
          "internalType": "bytes32",
          "name": "",
          "type": "bytes32"
        }
      ],
      "stateMutability": "view",
      "type": "function"
    },
    {
      "inputs": [],
      "name": "ORACLE_MANAGER_ROLE",
      "outputs": [
        {
          "internalType": "bytes32",
          "name": "",
          "type": "bytes32"
        }
      ],
      "stateMutability": "view",
      "type": "function"
    },
    {
      "inputs": [
        {
          "internalType": "bytes32",
          "name": "role",
          "type": "bytes32"
        }
      ],
      "name": "getRoleAdmin",
      "outputs": [
        {
          "internalType": "bytes32",
          "name": "",
          "type": "bytes32"
        }
      ],
      "stateMutability": "view",
      "type": "function"
    },
    {
      "inputs": [
        {
          "internalType": "bytes32",
          "name": "role",
          "type": "bytes32"
        },
        {
          "internalType": "address",
          "name": "account",
          "type": "address"
        }
      ],
      "name": "hasRole",
      "outputs": [
        {
          "internalType": "bool",
          "name": "",
          "type": "bool"
        }
      ],
      "stateMutability": "view",
      "type": "function"
    },
    {
      "inputs": [
        {
          "internalType": "uint256",
          "name": "",
          "type": "uint256"
        }
      ],
      "name": "responses",
      "outputs": [
        {
          "internalType": "uint256",
          "name": "responseId",
          "type": "uint256"
        },
        {
          "internalType": "uint256",
          "name": "requestId",
          "type": "uint256"
        },
        {
          "internalType": "uint256",
          "name": "leastArrivalTime",
          "type": "uint256"
        },
        {
          "internalType": "bytes32",
          "name": "outcome",
          "type": "bytes32"
        },
        {
          "internalType": "bool",
          "name": "hasOutcome",
          "type": "bool"
        },
        {
          "internalType": "bool",
          "name": "flag",
          "type": "bool"
        }
      ],
      "stateMutability": "view",
      "type": "function"
    },
    {
      "inputs": [
        {
          "internalType": "bytes32",
          "name": "role",
          "type": "bytes32"
        },
        {
          "internalType": "address",
          "name": "account",
          "type": "address"
        }
      ],
      "name": "revokeRole",
      "outputs": [],
      "stateMutability": "nonpayable",
      "type": "function"
    },
    {
      "inputs": [
        {
          "internalType": "uint256",
          "name": "_responseId",
          "type": "uint256"
        }
      ],
      "name": "activeResponse",
      "outputs": [
        {
          "internalType": "uint256",
          "name": "responseId",
          "type": "uint256"
        },
        {
          "internalType": "uint256",
          "name": "requestId",
          "type": "uint256"
        },
        {
          "internalType": "uint256[]",
          "name": "arrivalTime",
          "type": "uint256[]"
        },
        {
          "internalType": "bytes32[]",
          "name": "response",
          "type": "bytes32[]"
        },
        {
          "internalType": "address[]",
          "name": "oraclerAddress",
          "type": "address[]"
        },
        {
          "internalType": "bool",
          "name": "hasOutcome",
          "type": "bool"
        }
      ],
      "stateMutability": "view",
      "type": "function"
    },
    {
      "inputs": [
        {
          "internalType": "address",
          "name": "_sender",
          "type": "address"
        }
      ],
      "name": "senderIsValidOracler",
      "outputs": [
        {
          "internalType": "bool",
          "name": "",
          "type": "bool"
        }
      ],
      "stateMutability": "view",
      "type": "function"
    },
    {
      "inputs": [
        {
          "internalType": "address",
          "name": "oraclerAddress",
          "type": "address"
        },
        {
          "internalType": "bytes32",
          "name": "response",
          "type": "bytes32"
        },
        {
          "internalType": "uint256",
          "name": "requestId",
          "type": "uint256"
        }
      ],
      "name": "createResponse",
      "outputs": [],
      "stateMutability": "nonpayable",
      "type": "function"
    },
    {
      "inputs": [
        {
          "internalType": "uint256",
          "name": "_responseId",
          "type": "uint256"
        }
      ],
      "name": "getResponseLeastArrivalTime",
      "outputs": [
        {
          "internalType": "uint256",
          "name": "_leastArrivalTime",
          "type": "uint256"
        }
      ],
      "stateMutability": "view",
      "type": "function"
    },
    {
      "inputs": [
        {
          "internalType": "uint256",
          "name": "_responseId",
          "type": "uint256"
        }
      ],
      "name": "getResponsesArrivalTimes",
      "outputs": [
        {
          "internalType": "uint256[]",
          "name": "times",
          "type": "uint256[]"
        }
      ],
      "stateMutability": "view",
      "type": "function"
    },
    {
      "inputs": [
        {
          "internalType": "uint256",
          "name": "_responseId",
          "type": "uint256"
        }
      ],
      "name": "processResponse",
      "outputs": [],
      "stateMutability": "nonpayable",
      "type": "function"
    },
    {
      "inputs": [
        {
          "internalType": "uint256",
          "name": "_sortedResponseSize",
          "type": "uint256"
        }
      ],
      "name": "getResponseMedian",
      "outputs": [
        {
          "internalType": "uint256",
          "name": "medianValue",
          "type": "uint256"
        }
      ],
      "stateMutability": "pure",
      "type": "function"
    },
    {
      "inputs": [
        {
          "components": [
            {
              "internalType": "uint256",
              "name": "timeArrival",
              "type": "uint256"
            },
            {
              "internalType": "bytes32",
              "name": "response",
              "type": "bytes32"
            },
            {
              "internalType": "address",
              "name": "owner",
              "type": "address"
            },
            {
              "internalType": "bytes32",
              "name": "mode",
              "type": "bytes32"
            },
            {
              "internalType": "uint256",
              "name": "stake",
              "type": "uint256"
            }
          ],
          "internalType": "struct Response.Outcome[]",
          "name": "outcome",
          "type": "tuple[]"
        }
      ],
      "name": "sortResponseOutcomeByTimeArrival",
      "outputs": [],
      "stateMutability": "pure",
      "type": "function"
    },
    {
      "inputs": [
        {
          "internalType": "uint256",
          "name": "requestId",
          "type": "uint256"
        },
        {
          "internalType": "address",
          "name": "oraclerAddress",
          "type": "address"
        }
      ],
      "name": "requestHasResponse",
      "outputs": [
        {
          "internalType": "bool",
          "name": "value",
          "type": "bool"
        },
        {
          "internalType": "uint256",
          "name": "responseId",
          "type": "uint256"
        },
        {
          "internalType": "bool",
          "name": "responder",
          "type": "bool"
        }
      ],
      "stateMutability": "view",
      "type": "function"
    },
    {
      "inputs": [],
      "name": "getResponseTimeWindow",
      "outputs": [
        {
          "internalType": "uint256",
          "name": "",
          "type": "uint256"
        }
      ],
      "stateMutability": "view",
      "type": "function"
    },
    {
      "inputs": [
        {
          "internalType": "uint256",
          "name": "x",
          "type": "uint256"
        }
      ],
      "name": "mostSignificantBit",
      "outputs": [
        {
          "internalType": "uint256",
          "name": "r",
          "type": "uint256"
        }
      ],
      "stateMutability": "pure",
      "type": "function"
    }
  ],
  "bytecode": "0x60806040527f52000000000000000000000000000000000000000000000000000000000000006007557f50000000000000000000000000000000000000000000000000000000000000006008557f31000000000000000000000000000000000000000000000000000000000000006009557f3000000000000000000000000000000000000000000000000000000000000000600a55348015620000a157600080fd5b50604051620040ef380380620040ef8339818101604052810190620000c791906200031c565b620000f97f1effbbff9c66c5e59634f24fe842750c60d18891155c32dd155fc2d661a4c86d33620001fe60201b60201c565b6200012b7fced6982f480260bdd8ad5cb18ff2854f0306d78d904ad6cc107e8f3a0f526c1833620001fe60201b60201c565b33600360006101000a81548173ffffffffffffffffffffffffffffffffffffffff021916908373ffffffffffffffffffffffffffffffffffffffff160217905550600a60068190555081600160006101000a81548173ffffffffffffffffffffffffffffffffffffffff021916908373ffffffffffffffffffffffffffffffffffffffff16021790555080600260006101000a81548173ffffffffffffffffffffffffffffffffffffffff021916908373ffffffffffffffffffffffffffffffffffffffff1602179055505050620003b6565b6200021082826200021460201b60201c565b5050565b6200022682826200029b60201b60201c565b6200029757600160008084815260200190815260200160002060000160008373ffffffffffffffffffffffffffffffffffffffff1673ffffffffffffffffffffffffffffffffffffffff16815260200190815260200160002060006101000a81548160ff0219169083151502179055505b5050565b600080600084815260200190815260200160002060000160008373ffffffffffffffffffffffffffffffffffffffff1673ffffffffffffffffffffffffffffffffffffffff16815260200190815260200160002060009054906101000a900460ff16905092915050565b60008151905062000316816200039c565b92915050565b6000806040838503121562000336576200033562000397565b5b6000620003468582860162000305565b9250506020620003598582860162000305565b9150509250929050565b6000620003708262000377565b9050919050565b600073ffffffffffffffffffffffffffffffffffffffff82169050919050565b600080fd5b620003a78162000363565b8114620003b357600080fd5b50565b613d2980620003c66000396000f3fe608060405234801561001057600080fd5b506004361061010b5760003560e01c806391d14854116100a2578063df257a1811610071578063df257a18146102e5578063e6bcbc6514610315578063ed35d7e514610345578063f13ea7d71461037a578063fae94604146103965761010b565b806391d148541461025d578063a217fddf1461028d578063bfc69e1c146102ab578063d547741f146102c95761010b565b806351dd65bd116100de57806351dd65bd146101965780635e381c4d146101c65780636892383a146101f657806378f6ca70146102285761010b565b80630d3b8e8914610110578063248a9ca31461012e578063359178a41461015e5780633fb351c61461017a575b600080fd5b6101186103c6565b60405161012591906134f2565b60405180910390f35b61014860048036038101906101439190612e6a565b6103d0565b60405161015591906133f5565b60405180910390f35b61017860048036038101906101739190612dab565b6103ef565b005b610194600480360381019061018f9190612ed7565b6104d6565b005b6101b060048036038101906101ab9190612d2b565b610d25565b6040516101bd91906133a3565b60405180910390f35b6101e060048036038101906101db9190612ed7565b610df1565b6040516101ed91906134f2565b60405180910390f35b610210600480360381019061020b9190612f31565b610e0c565b60405161021f939291906133be565b60405180910390f35b610242600480360381019061023d9190612ed7565b611184565b6040516102549695949392919061356d565b60405180910390f35b61027760048036038101906102729190612e97565b61142f565b60405161028491906133a3565b60405180910390f35b610295611499565b6040516102a291906133f5565b60405180910390f35b6102b36114bd565b6040516102c091906133f5565b60405180910390f35b6102e360048036038101906102de9190612e97565b6114e1565b005b6102ff60048036038101906102fa9190612ed7565b611503565b60405161030c9190613381565b60405180910390f35b61032f600480360381019061032a9190612ed7565b6116e0565b60405161033c91906134f2565b60405180910390f35b61035f600480360381019061035a9190612ed7565b611803565b604051610371969594939291906135e3565b60405180910390f35b610394600480360381019061038f9190612d58565b611859565b005b6103b060048036038101906103ab9190612ed7565b611e3f565b6040516103bd91906134f2565b60405180910390f35b6000600654905090565b6000806000838152602001908152602001600020600101549050919050565b60005b81518110156104d25760008282815181106104105761040f613a2f565b5b6020026020010151905060006001836104299190613793565b90505b83518110156104bd57600084828151811061044a57610449613a2f565b5b602002602001015190508060000151836000015111156104a95760008390508186868151811061047d5761047c613a2f565b5b60200260200101819052508086848151811061049c5761049b613a2f565b5b6020026020010181905250505b5080806104b590613988565b91505061042c565b505080806104ca90613988565b9150506103f2565b5050565b6000600b82815481106104ec576104eb613a2f565b5b9060005260206000209060080201604051806101200160405290816000820154815260200160018201548152602001600282015481526020016003820180548060200260200160405190810160405280929190818152602001828054801561057357602002820191906000526020600020905b81548152602001906001019080831161055f575b50505050508152602001600482018054806020026020016040519081016040528092919081815260200182805480156105cb57602002820191906000526020600020905b8154815260200190600101908083116105b7575b505050505081526020016005820180548060200260200160405190810160405280929190818152602001828054801561065957602002820191906000526020600020905b8160009054906101000a900473ffffffffffffffffffffffffffffffffffffffff1673ffffffffffffffffffffffffffffffffffffffff168152602001906001019080831161060f575b50505050508152602001600682015481526020016007820160009054906101000a900460ff161515151581526020016007820160019054906101000a900460ff16151515158152505090506000816080015151905060008167ffffffffffffffff8111156106ca576106c9613a5e565b5b60405190808252806020026020018201604052801561070357816020015b6106f061297f565b8152602001906001900390816106e85790505b5090506000600260009054906101000a900473ffffffffffffffffffffffffffffffffffffffff1673ffffffffffffffffffffffffffffffffffffffff16637b9494dd85602001516040518263ffffffff1660e01b815260040161076791906134f2565b60006040518083038186803b15801561077f57600080fd5b505afa158015610793573d6000803e3d6000fd5b505050506040513d6000823e3d601f19601f820116820180604052508101906107bc9190612df4565b905060008060008060006001905060008867ffffffffffffffff8111156107e6576107e5613a5e565b5b6040519080825280602002602001820160405280156108145781602001602082028036833780820191505090505b50905060008967ffffffffffffffff81111561083357610832613a5e565b5b6040519080825280602002602001820160405280156108615781602001602082028036833780820191505090505b50905060005b8a811015610b2f576006548c604001518d60600151838151811061088e5761088d613a2f565b5b60200260200101516108a09190613874565b11610a365760006040518060a001604052808e6060015184815181106108c9576108c8613a2f565b5b602002602001015181526020018e6080015184815181106108ed576108ec613a2f565b5b602002602001015181526020018e60a00151848151811061091157610910613a2f565b5b602002602001015173ffffffffffffffffffffffffffffffffffffffff16815260200160075481526020018b8b8151811061094f5761094e613a2f565b5b602002602001015181525090506009548b838151811061097257610971613a2f565b5b60200260200101516020015114156109b8578184898151811061099857610997613a2f565b5b6020026020010181815250506001886109b19190613793565b9750610a11565b600a548b83815181106109ce576109cd613a2f565b5b6020026020010151602001511415610a1057818388815181106109f4576109f3613a2f565b5b602002602001018181525050600187610a0d9190613793565b96505b5b808b8a81518110610a2557610a24613a2f565b5b602002602001018190525050610b0e565b60006040518060a001604052808e606001518481518110610a5a57610a59613a2f565b5b602002602001015181526020018e608001518481518110610a7e57610a7d613a2f565b5b602002602001015181526020018e60a001518481518110610aa257610aa1613a2f565b5b602002602001015173ffffffffffffffffffffffffffffffffffffffff16815260200160085481526020018b8b81518110610ae057610adf613a2f565b5b60200260200101518152509050808b8a81518110610b0157610b00613a2f565b5b6020026020010181905250505b8780610b1990613988565b9850508080610b2790613988565b915050610867565b50848610610ba2578593506001925060005b85811015610b9c576008548a838381518110610b6057610b5f613a2f565b5b602002602001015181518110610b7957610b78613a2f565b5b602002602001015160600181815250508080610b9490613988565b915050610b41565b50610c09565b8493506000925060005b86811015610c07576008548a848381518110610bcb57610bca613a2f565b5b602002602001015181518110610be457610be3613a2f565b5b602002602001015160600181815250508080610bff90613988565b915050610bac565b505b610c12896103ef565b610c1b8961201b565b6000610c2685610df1565b9050600115158415151415610c5757828181518110610c4857610c47613a2f565b5b60200260200101519050610c75565b818181518110610c6a57610c69613a2f565b5b602002602001015190505b610c9f60018e8c8481518110610c8e57610c8d613a2f565b5b6020026020010151602001516125bb565b7f046f0b9c6a77e4d14b44342e99d8c853758775ae5ca1bdf024bfdbba8a1d3c2e8d8b8381518110610cd457610cd3613a2f565b5b6020026020010151602001518c8481518110610cf357610cf2613a2f565b5b602002602001015160400151604051610d0e93929190613536565b60405180910390a150505050505050505050505050565b600060011515600160009054906101000a900473ffffffffffffffffffffffffffffffffffffffff1673ffffffffffffffffffffffffffffffffffffffff1663c3c5a547846040518263ffffffff1660e01b8152600401610d8691906132f8565b60206040518083038186803b158015610d9e57600080fd5b505afa158015610db2573d6000803e3d6000fd5b505050506040513d601f19601f82011682018060405250810190610dd69190612e3d565b15151415610de75760019050610dec565b600090505b919050565b600080600283610e0191906137e9565b905080915050919050565b60008060008373ffffffffffffffffffffffffffffffffffffffff163373ffffffffffffffffffffffffffffffffffffffff161480610e985750600360009054906101000a900473ffffffffffffffffffffffffffffffffffffffff1673ffffffffffffffffffffffffffffffffffffffff163373ffffffffffffffffffffffffffffffffffffffff16145b610ed7576040517f08c379a0000000000000000000000000000000000000000000000000000000008152600401610ece90613452565b60405180910390fd5b60009250600090506000600b80549050111561117d5760005b600b8054905081101561117b576000600b8281548110610f1357610f12613a2f565b5b90600052602060002090600802016040518061012001604052908160008201548152602001600182015481526020016002820154815260200160038201805480602002602001604051908101604052809291908181526020018280548015610f9a57602002820191906000526020600020905b815481526020019060010190808311610f86575b5050505050815260200160048201805480602002602001604051908101604052809291908181526020018280548015610ff257602002820191906000526020600020905b815481526020019060010190808311610fde575b505050505081526020016005820180548060200260200160405190810160405280929190818152602001828054801561108057602002820191906000526020600020905b8160009054906101000a900473ffffffffffffffffffffffffffffffffffffffff1673ffffffffffffffffffffffffffffffffffffffff1681526020019060010190808311611036575b50505050508152602001600682015481526020016007820160009054906101000a900460ff161515151581526020016007820160019054906101000a900460ff1615151515815250509050868160200151141561116757600194508060000151935060005b8160a0015151811015611160578673ffffffffffffffffffffffffffffffffffffffff168260a0015182815181106111205761111f613a2f565b5b602002602001015173ffffffffffffffffffffffffffffffffffffffff16141561114d5760019350611160565b808061115890613988565b9150506110e5565b505061117b565b50808061117390613988565b915050610ef0565b505b9250925092565b60008060608060606000600b87815481106111a2576111a1613a2f565b5b906000526020600020906008020160070160019054906101000a900460ff16611200576040517f08c379a00000000000000000000000000000000000000000000000000000000081526004016111f790613472565b60405180910390fd5b600b878154811061121457611213613a2f565b5b906000526020600020906008020160000154600b888154811061123a57611239613a2f565b5b906000526020600020906008020160010154600b89815481106112605761125f613a2f565b5b9060005260206000209060080201600301600b8a8154811061128557611284613a2f565b5b9060005260206000209060080201600401600b8b815481106112aa576112a9613a2f565b5b9060005260206000209060080201600501600b8c815481106112cf576112ce613a2f565b5b906000526020600020906008020160070160009054906101000a900460ff168380548060200260200160405190810160405280929190818152602001828054801561133957602002820191906000526020600020905b815481526020019060010190808311611325575b505050505093508280548060200260200160405190810160405280929190818152602001828054801561138b57602002820191906000526020600020905b815481526020019060010190808311611377575b505050505092508180548060200260200160405190810160405280929190818152602001828054801561141357602002820191906000526020600020905b8160009054906101000a900473ffffffffffffffffffffffffffffffffffffffff1673ffffffffffffffffffffffffffffffffffffffff16815260200190600101908083116113c9575b5050505050915095509550955095509550955091939550919395565b600080600084815260200190815260200160002060000160008373ffffffffffffffffffffffffffffffffffffffff1673ffffffffffffffffffffffffffffffffffffffff16815260200190815260200160002060009054906101000a900460ff16905092915050565b7f1effbbff9c66c5e59634f24fe842750c60d18891155c32dd155fc2d661a4c86d81565b7fced6982f480260bdd8ad5cb18ff2854f0306d78d904ad6cc107e8f3a0f526c1881565b6114ea826103d0565b6114f48133612627565b6114fe83836126c4565b505050565b60606000600b838154811061151b5761151a613a2f565b5b906000526020600020906008020160405180610120016040529081600082015481526020016001820154815260200160028201548152602001600382018054806020026020016040519081016040528092919081815260200182805480156115a257602002820191906000526020600020905b81548152602001906001019080831161158e575b50505050508152602001600482018054806020026020016040519081016040528092919081815260200182805480156115fa57602002820191906000526020600020905b8154815260200190600101908083116115e6575b505050505081526020016005820180548060200260200160405190810160405280929190818152602001828054801561168857602002820191906000526020600020905b8160009054906101000a900473ffffffffffffffffffffffffffffffffffffffff1673ffffffffffffffffffffffffffffffffffffffff168152602001906001019080831161163e575b50505050508152602001600682015481526020016007820160009054906101000a900460ff161515151581526020016007820160019054906101000a900460ff16151515158152505090508060600151915050919050565b60008082116116ee57600080fd5b700100000000000000000000000000000000821061171d57608082901c915060808161171a9190613793565b90505b68010000000000000000821061174457604082901c91506040816117419190613793565b90505b640100000000821061176757602082901c91506020816117649190613793565b90505b62010000821061178857601082901c91506010816117859190613793565b90505b61010082106117a857600882901c91506008816117a59190613793565b90505b601082106117c757600482901c91506004816117c49190613793565b90505b600482106117e657600282901c91506002816117e39190613793565b90505b600282106117fe576001816117fb9190613793565b90505b919050565b600c6020528060005260406000206000915090508060000154908060010154908060020154908060060154908060070160009054906101000a900460ff16908060070160019054906101000a900460ff16905086565b6001151561186684610d25565b1515146118a8576040517f08c379a000000000000000000000000000000000000000000000000000000000815260040161189f906134b2565b60405180910390fd5b6000602060ff16116118ef576040517f08c379a00000000000000000000000000000000000000000000000000000000081526004016118e6906134d2565b60405180910390fd5b60008060006118fe8487610e0c565b925092509250600015158115151461194b576040517f08c379a000000000000000000000000000000000000000000000000000000000815260040161194290613492565b60405180910390fd5b82611b71576000600c6000600454815260200190815260200160002090508060030142908060018154018082558091505060019003906000526020600020016000909190919091505580600501879080600181540180825580915050600190039060005260206000200160009091909190916101000a81548173ffffffffffffffffffffffffffffffffffffffff021916908373ffffffffffffffffffffffffffffffffffffffff16021790555084816001018190555080600401869080600181540180825580915050600190039060005260206000200160009091909190915055600454816000018190555060008160070160006101000a81548160ff021916908315150217905550428160020181905550600b8190806001815401808255809150506001900390600052602060002090600802016000909190919091506000820154816000015560018201548160010155600282015481600201556003820181600301908054611abe9291906129ca565b506004820181600401908054611ad5929190612a1c565b506005820181600501908054611aec929190612a6e565b50600682015481600601556007820160009054906101000a900460ff168160070160006101000a81548160ff0219169083151502179055506007820160019054906101000a900460ff168160070160016101000a81548160ff021916908315150217905550505060046000815480929190611b6690613988565b919050555050611dfe565b6000600c6000848152602001908152602001600020905080600301429080600181540180825580915050600190039060005260206000200160009091909190915055600b8381548110611bc757611bc6613a2f565b5b906000526020600020906008020160030142908060018154018082558091505060019003906000526020600020016000909190919091505580600501879080600181540180825580915050600190039060005260206000200160009091909190916101000a81548173ffffffffffffffffffffffffffffffffffffffff021916908373ffffffffffffffffffffffffffffffffffffffff160217905550600b8381548110611c7857611c77613a2f565b5b9060005260206000209060080201600501879080600181540180825580915050600190039060005260206000200160009091909190916101000a81548173ffffffffffffffffffffffffffffffffffffffff021916908373ffffffffffffffffffffffffffffffffffffffff16021790555080600401869080600181540180825580915050600190039060005260206000200160009091909190915055600b8381548110611d2957611d28613a2f565b5b906000526020600020906008020160040186908060018154018082558091505060019003906000526020600020016000909190919091505560008160070160006101000a81548160ff0219169083151502179055506000600b8481548110611d9457611d93613a2f565b5b906000526020600020906008020160070160006101000a81548160ff0219169083151502179055504281600201541115611dfc5742816002018190555042600b8481548110611de657611de5613a2f565b5b9060005260206000209060080201600201819055505b505b7f2458da58faffe7d4a47f0fc12325eedcd252fa9257a451cec684c3b5c69e45158487604051611e2f92919061350d565b60405180910390a1505050505050565b600080600b8381548110611e5657611e55613a2f565b5b90600052602060002090600802016040518061012001604052908160008201548152602001600182015481526020016002820154815260200160038201805480602002602001604051908101604052809291908181526020018280548015611edd57602002820191906000526020600020905b815481526020019060010190808311611ec9575b5050505050815260200160048201805480602002602001604051908101604052809291908181526020018280548015611f3557602002820191906000526020600020905b815481526020019060010190808311611f21575b5050505050815260200160058201805480602002602001604051908101604052809291908181526020018280548015611fc357602002820191906000526020600020905b8160009054906101000a900473ffffffffffffffffffffffffffffffffffffffff1673ffffffffffffffffffffffffffffffffffffffff1681526020019060010190808311611f79575b50505050508152602001600682015481526020016007820160009054906101000a900460ff161515151581526020016007820160019054906101000a900460ff16151515158152505090508060400151915050919050565b60005b81518110156125b7576000600160009054906101000a900473ffffffffffffffffffffffffffffffffffffffff1673ffffffffffffffffffffffffffffffffffffffff1663add0694184848151811061207a57612079613a2f565b5b6020026020010151604001516040518263ffffffff1660e01b81526004016120a291906132f8565b60206040518083038186803b1580156120ba57600080fd5b505afa1580156120ce573d6000803e3d6000fd5b505050506040513d601f19601f820116820180604052508101906120f29190612f04565b90506000600160009054906101000a900473ffffffffffffffffffffffffffffffffffffffff1673ffffffffffffffffffffffffffffffffffffffff1663221a0b6f836040518263ffffffff1660e01b815260040161215191906134f2565b60206040518083038186803b15801561216957600080fd5b505afa15801561217d573d6000803e3d6000fd5b505050506040513d601f19601f820116820180604052508101906121a19190612f04565b905060008484815181106121b8576121b7613a2f565b5b60200260200101516080015190506000600190507f5200000000000000000000000000000000000000000000000000000000000000868681518110612200576121ff613a2f565b5b60200260200101516060015114156123db57828161221e9190613793565b9050606481111561222e57606490505b600160009054906101000a900473ffffffffffffffffffffffffffffffffffffffff1673ffffffffffffffffffffffffffffffffffffffff1663a64c572d87878151811061227f5761227e613a2f565b5b602002602001015160400151846040518363ffffffff1660e01b81526004016122a9929190613313565b602060405180830381600087803b1580156122c357600080fd5b505af11580156122d7573d6000803e3d6000fd5b505050506040513d601f19601f820116820180604052508101906122fb9190612e3d565b50600160009054906101000a900473ffffffffffffffffffffffffffffffffffffffff1673ffffffffffffffffffffffffffffffffffffffff1663fe1e3a9b87878151811061234d5761234c613a2f565b5b60200260200101516040015186612363856116e0565b856040518563ffffffff1660e01b8152600401612383949392919061333c565b602060405180830381600087803b15801561239d57600080fd5b505af11580156123b1573d6000803e3d6000fd5b505050506040513d601f19601f820116820180604052508101906123d59190612e3d565b506125a0565b80836123e79190613874565b905060008110156123f757600090505b600160009054906101000a900473ffffffffffffffffffffffffffffffffffffffff1673ffffffffffffffffffffffffffffffffffffffff16639fbfb78b87878151811061244857612447613a2f565b5b602002602001015160400151846040518363ffffffff1660e01b8152600401612472929190613313565b602060405180830381600087803b15801561248c57600080fd5b505af11580156124a0573d6000803e3d6000fd5b505050506040513d601f19601f820116820180604052508101906124c49190612e3d565b50600160009054906101000a900473ffffffffffffffffffffffffffffffffffffffff1673ffffffffffffffffffffffffffffffffffffffff1663fe1e3a9b87878151811061251657612515613a2f565b5b6020026020010151604001518661252c856116e0565b856040518563ffffffff1660e01b815260040161254c949392919061333c565b602060405180830381600087803b15801561256657600080fd5b505af115801561257a573d6000803e3d6000fd5b505050506040513d601f19601f8201168201806040525081019061259e9190612e3d565b505b5050505080806125af90613988565b91505061201e565b5050565b80600b83815481106125d0576125cf613a2f565b5b90600052602060002090600802016006018190555082600b83815481106125fa576125f9613a2f565b5b906000526020600020906008020160070160006101000a81548160ff021916908315150217905550505050565b612631828261142f565b6126c0576126568173ffffffffffffffffffffffffffffffffffffffff166014612743565b6126648360001c6020612743565b6040516020016126759291906132be565b6040516020818303038152906040526040517f08c379a00000000000000000000000000000000000000000000000000000000081526004016126b79190613410565b60405180910390fd5b5050565b6126ce828261142f565b1561273f57600080600084815260200190815260200160002060000160008373ffffffffffffffffffffffffffffffffffffffff1673ffffffffffffffffffffffffffffffffffffffff16815260200190815260200160002060006101000a81548160ff0219169083151502179055505b5050565b606060006002836002612756919061381a565b6127609190613793565b67ffffffffffffffff81111561277957612778613a5e565b5b6040519080825280601f01601f1916602001820160405280156127ab5781602001600182028036833780820191505090505b5090507f3000000000000000000000000000000000000000000000000000000000000000816000815181106127e3576127e2613a2f565b5b60200101907effffffffffffffffffffffffffffffffffffffffffffffffffffffffffffff1916908160001a9053507f78000000000000000000000000000000000000000000000000000000000000008160018151811061284757612846613a2f565b5b60200101907effffffffffffffffffffffffffffffffffffffffffffffffffffffffffffff1916908160001a90535060006001846002612887919061381a565b6128919190613793565b90505b6001811115612931577f3031323334353637383961626364656600000000000000000000000000000000600f8616601081106128d3576128d2613a2f565b5b1a60f81b8282815181106128ea576128e9613a2f565b5b60200101907effffffffffffffffffffffffffffffffffffffffffffffffffffffffffffff1916908160001a905350600485901c94508061292a9061392d565b9050612894565b5060008414612975576040517f08c379a000000000000000000000000000000000000000000000000000000000815260040161296c90613432565b60405180910390fd5b8091505092915050565b6040518060a001604052806000815260200160008019168152602001600073ffffffffffffffffffffffffffffffffffffffff16815260200160008019168152602001600081525090565b828054828255906000526020600020908101928215612a0b5760005260206000209182015b82811115612a0a5782548255916001019190600101906129ef565b5b509050612a189190612ac0565b5090565b828054828255906000526020600020908101928215612a5d5760005260206000209182015b82811115612a5c578254825591600101919060010190612a41565b5b509050612a6a9190612add565b5090565b828054828255906000526020600020908101928215612aaf5760005260206000209182015b82811115612aae578254825591600101919060010190612a93565b5b509050612abc9190612ac0565b5090565b5b80821115612ad9576000816000905550600101612ac1565b5090565b5b80821115612af6576000816000905550600101612ade565b5090565b6000612b0d612b0884613669565b613644565b905080838252602082019050828560a0860282011115612b3057612b2f613a97565b5b60005b85811015612b605781612b468882612c75565b845260208401935060a08301925050600181019050612b33565b5050509392505050565b6000612b7d612b7884613695565b613644565b90508083825260208201905082856020860282011115612ba057612b9f613a97565b5b60005b85811015612bd05781612bb68882612d16565b845260208401935060208301925050600181019050612ba3565b5050509392505050565b600081359050612be981613c97565b92915050565b600082601f830112612c0457612c03613a8d565b5b8135612c14848260208601612afa565b91505092915050565b600082601f830112612c3257612c31613a8d565b5b8151612c42848260208601612b6a565b91505092915050565b600081519050612c5a81613cae565b92915050565b600081359050612c6f81613cc5565b92915050565b600060a08284031215612c8b57612c8a613a92565b5b612c9560a0613644565b90506000612ca584828501612d01565b6000830152506020612cb984828501612c60565b6020830152506040612ccd84828501612bda565b6040830152506060612ce184828501612c60565b6060830152506080612cf584828501612d01565b60808301525092915050565b600081359050612d1081613cdc565b92915050565b600081519050612d2581613cdc565b92915050565b600060208284031215612d4157612d40613aa1565b5b6000612d4f84828501612bda565b91505092915050565b600080600060608486031215612d7157612d70613aa1565b5b6000612d7f86828701612bda565b9350506020612d9086828701612c60565b9250506040612da186828701612d01565b9150509250925092565b600060208284031215612dc157612dc0613aa1565b5b600082013567ffffffffffffffff811115612ddf57612dde613a9c565b5b612deb84828501612bef565b91505092915050565b600060208284031215612e0a57612e09613aa1565b5b600082015167ffffffffffffffff811115612e2857612e27613a9c565b5b612e3484828501612c1d565b91505092915050565b600060208284031215612e5357612e52613aa1565b5b6000612e6184828501612c4b565b91505092915050565b600060208284031215612e8057612e7f613aa1565b5b6000612e8e84828501612c60565b91505092915050565b60008060408385031215612eae57612ead613aa1565b5b6000612ebc85828601612c60565b9250506020612ecd85828601612bda565b9150509250929050565b600060208284031215612eed57612eec613aa1565b5b6000612efb84828501612d01565b91505092915050565b600060208284031215612f1a57612f19613aa1565b5b6000612f2884828501612d16565b91505092915050565b60008060408385031215612f4857612f47613aa1565b5b6000612f5685828601612d01565b9250506020612f6785828601612bda565b9150509250929050565b6000612f7d8383612fb9565b60208301905092915050565b6000612f958383613100565b60208301905092915050565b6000612fad83836132a0565b60208301905092915050565b612fc2816138a8565b82525050565b612fd1816138a8565b82525050565b6000612fe2826136f1565b612fec8185613744565b9350612ff7836136c1565b8060005b8381101561302857815161300f8882612f71565b975061301a8361371d565b925050600181019050612ffb565b5085935050505092915050565b6000613040826136fc565b61304a8185613755565b9350613055836136d1565b8060005b8381101561308657815161306d8882612f89565b97506130788361372a565b925050600181019050613059565b5085935050505092915050565b600061309e82613707565b6130a88185613766565b93506130b3836136e1565b8060005b838110156130e45781516130cb8882612fa1565b97506130d683613737565b9250506001810190506130b7565b5085935050505092915050565b6130fa816138ba565b82525050565b613109816138c6565b82525050565b613118816138c6565b82525050565b600061312982613712565b6131338185613777565b93506131438185602086016138fa565b61314c81613aa6565b840191505092915050565b600061316282613712565b61316c8185613788565b935061317c8185602086016138fa565b80840191505092915050565b6000613195602083613777565b91506131a082613ab7565b602082019050919050565b60006131b8603683613777565b91506131c382613ae0565b604082019050919050565b60006131db602983613777565b91506131e682613b2f565b604082019050919050565b60006131fe602d83613777565b915061320982613b7e565b604082019050919050565b6000613221602883613777565b915061322c82613bcd565b604082019050919050565b6000613244601783613788565b915061324f82613c1c565b601782019050919050565b6000613267602083613777565b915061327282613c45565b602082019050919050565b600061328a601183613788565b915061329582613c6e565b601182019050919050565b6132a9816138f0565b82525050565b6132b8816138f0565b82525050565b60006132c982613237565b91506132d58285613157565b91506132e08261327d565b91506132ec8284613157565b91508190509392505050565b600060208201905061330d6000830184612fc8565b92915050565b60006040820190506133286000830185612fc8565b61333560208301846132af565b9392505050565b60006080820190506133516000830187612fc8565b61335e60208301866132af565b61336b60408301856132af565b61337860608301846132af565b95945050505050565b6000602082019050818103600083015261339b8184613093565b905092915050565b60006020820190506133b860008301846130f1565b92915050565b60006060820190506133d360008301866130f1565b6133e060208301856132af565b6133ed60408301846130f1565b949350505050565b600060208201905061340a600083018461310f565b92915050565b6000602082019050818103600083015261342a818461311e565b905092915050565b6000602082019050818103600083015261344b81613188565b9050919050565b6000602082019050818103600083015261346b816131ab565b9050919050565b6000602082019050818103600083015261348b816131ce565b9050919050565b600060208201905081810360008301526134ab816131f1565b9050919050565b600060208201905081810360008301526134cb81613214565b9050919050565b600060208201905081810360008301526134eb8161325a565b9050919050565b600060208201905061350760008301846132af565b92915050565b600060408201905061352260008301856132af565b61352f6020830184612fc8565b9392505050565b600060608201905061354b60008301866132af565b613558602083018561310f565b6135656040830184612fc8565b949350505050565b600060c08201905061358260008301896132af565b61358f60208301886132af565b81810360408301526135a18187613093565b905081810360608301526135b58186613035565b905081810360808301526135c98185612fd7565b90506135d860a08301846130f1565b979650505050505050565b600060c0820190506135f860008301896132af565b61360560208301886132af565b61361260408301876132af565b61361f606083018661310f565b61362c60808301856130f1565b61363960a08301846130f1565b979650505050505050565b600061364e61365f565b905061365a8282613957565b919050565b6000604051905090565b600067ffffffffffffffff82111561368457613683613a5e565b5b602082029050602081019050919050565b600067ffffffffffffffff8211156136b0576136af613a5e565b5b602082029050602081019050919050565b6000819050602082019050919050565b6000819050602082019050919050565b6000819050602082019050919050565b600081519050919050565b600081519050919050565b600081519050919050565b600081519050919050565b6000602082019050919050565b6000602082019050919050565b6000602082019050919050565b600082825260208201905092915050565b600082825260208201905092915050565b600082825260208201905092915050565b600082825260208201905092915050565b600081905092915050565b600061379e826138f0565b91506137a9836138f0565b9250827fffffffffffffffffffffffffffffffffffffffffffffffffffffffffffffffff038211156137de576137dd6139d1565b5b828201905092915050565b60006137f4826138f0565b91506137ff836138f0565b92508261380f5761380e613a00565b5b828204905092915050565b6000613825826138f0565b9150613830836138f0565b9250817fffffffffffffffffffffffffffffffffffffffffffffffffffffffffffffffff0483118215151615613869576138686139d1565b5b828202905092915050565b600061387f826138f0565b915061388a836138f0565b92508282101561389d5761389c6139d1565b5b828203905092915050565b60006138b3826138d0565b9050919050565b60008115159050919050565b6000819050919050565b600073ffffffffffffffffffffffffffffffffffffffff82169050919050565b6000819050919050565b60005b838110156139185780820151818401526020810190506138fd565b83811115613927576000848401525b50505050565b6000613938826138f0565b9150600082141561394c5761394b6139d1565b5b600182039050919050565b61396082613aa6565b810181811067ffffffffffffffff8211171561397f5761397e613a5e565b5b80604052505050565b6000613993826138f0565b91507fffffffffffffffffffffffffffffffffffffffffffffffffffffffffffffffff8214156139c6576139c56139d1565b5b600182019050919050565b7f4e487b7100000000000000000000000000000000000000000000000000000000600052601160045260246000fd5b7f4e487b7100000000000000000000000000000000000000000000000000000000600052601260045260246000fd5b7f4e487b7100000000000000000000000000000000000000000000000000000000600052603260045260246000fd5b7f4e487b7100000000000000000000000000000000000000000000000000000000600052604160045260246000fd5b600080fd5b600080fd5b600080fd5b600080fd5b600080fd5b6000601f19601f8301169050919050565b7f537472696e67733a20686578206c656e67746820696e73756666696369656e74600082015250565b7f4f6e6c79206d616e61676572206f722074686520726573706f6e73652063726560008201527f61746f72206861732061636365737320746f2069742e00000000000000000000602082015250565b7f5468657265206973206e6f20726571756573742077697468207468652073706560008201527f6369666965642069640000000000000000000000000000000000000000000000602082015250565b7f4f7261636c65722068617320616c726561647920726573706f6e64656420746f60008201527f2074686520726571756573742e00000000000000000000000000000000000000602082015250565b7f41737369676e6564206f7261636c6572206d7573742072657475726e2061207260008201527f6573706f6e73652e000000000000000000000000000000000000000000000000602082015250565b7f416363657373436f6e74726f6c3a206163636f756e7420000000000000000000600082015250565b7f52657475726e20726573706f6e73652063616e6e6f7420626520656d7074792e600082015250565b7f206973206d697373696e6720726f6c6520000000000000000000000000000000600082015250565b613ca0816138a8565b8114613cab57600080fd5b50565b613cb7816138ba565b8114613cc257600080fd5b50565b613cce816138c6565b8114613cd957600080fd5b50565b613ce5816138f0565b8114613cf057600080fd5b5056fea26469706673582212200e0de54a34753c66795fa62a23b9e2cfe70731d929045305c545c752428649ab64736f6c63430008070033",
  "immutableReferences": {},
  "source": "// SPDX-License-Identifier: GPL-3.0-or-later\npragma solidity >=0.6.0;\nimport \"./Oracle.sol\";\nimport \"./Request.sol\";\n// import \"@openzeppelin/contracts/access/AccessControl.sol\";\nimport \"./AccessControl.sol\";\n\n\ncontract Response is AccessControl {\n    Oracle private oracle;\n    Request private request;\n    \n    address private oracleManager;\n    uint256 nextResponseId;\n    uint256[] private responseMappingIndex;\n    uint256 timeWindow;\n    \n    bytes32 reward = bytes32(\"R\");\n    bytes32 penalty = bytes32(\"P\");\n    bytes32 one = bytes32(\"1\");\n    bytes32 zero = bytes32(\"0\");\n\n\n    //Prepare the time window for responses\n    constructor(address _deployedOracle, address _deployedRequest) {\n        _setupRole(DEFAULT_ADMIN_ROLE,msg.sender);\n        _setupRole(ORACLE_MANAGER_ROLE,msg.sender);\n        oracleManager = msg.sender;\n        timeWindow = 10; //in second\n        oracle = Oracle(_deployedOracle);\n        request = Request(_deployedRequest);\n    }\n\n    //Response struct for holding the object\n    struct Responses {\n        uint256 responseId;\n        uint256 requestId;\n        uint256 leastArrivalTime;\n        uint256[] arrivalTime;\n        bytes32[] response;\n        address[] oraclerAddress;\n        bytes32 outcome;\n        bool hasOutcome;\n        bool flag;\n    }\n\n    //Oracle outcome struct for holding the object\n    struct Outcome {\n        uint256 timeArrival;\n        bytes32 response;\n        address owner;\n        bytes32 mode;\n        uint256 stake;\n    }\n\n    //Event for creation of a response\n    event responseCreated(uint256 requestId, address _address);\n    //Event for finalizing a resposen\n    event responseFinalized(uint256 responseId, bytes32 outcome, address owner);\n\n    //An array of response for requests\n    Responses[] responsesSet;\n    //Assigning ids to responses\n    mapping(uint256 => Responses) public responses;\n\n    //Set manager address\n    // function setOraclerManagerAddress() public {\n    //     oracleManager = oracle.getOracleManagerAddress();\n    // }\n    \n    // Get oracle manager address\n    // function getOracleManagerAddress() public returns (address){\n    //     return oracleManager;\n    // }\n\n\n\n    //Set the deployed oracle contract\n    // function accessDeployedOracleContract(address deployedOracle)\n    //     public\n    //     returns (bool)\n    // {\n    //     oracle = Oracle(deployedOracle);\n    //     setOraclerManagerAddress();\n    //     return true;\n    // }\n\n\n    //Set the deployed oracle contract\n    // function accessDeployedRequestContract(address deployedRequest)\n    //     public\n    //     returns (bool)\n    // {\n    //     request = Request(deployedRequest);\n    //     return true;\n    // }\n\n    //Get a request either pending/non-pending\n    function activeResponse(uint256 _responseId)\n        public\n        view\n        returns (\n            uint256 responseId,\n            uint256 requestId,\n            uint256[] memory arrivalTime,\n            bytes32[] memory response,\n            address[] memory oraclerAddress,\n            bool hasOutcome\n        )\n    {\n        // require(\n        //     isResponseCreated(_responseId) == true,\n        //     \"There is no request with the specified id.\"\n        // );\n        require(responsesSet[_responseId].flag, \"There is no request with the specified id\");\n        return (\n            responsesSet[_responseId].responseId,\n            responsesSet[_responseId].requestId,\n            responsesSet[_responseId].arrivalTime,\n            responsesSet[_responseId].response,\n            responsesSet[_responseId].oraclerAddress,\n            responsesSet[_responseId].hasOutcome\n        );\n    }\n\n    //Check the oracler is valid, not the manager.\n    function senderIsValidOracler(address _sender) public view returns (bool) {\n        // address[] memory _oraclers = oracle.registeredOraclersAddress();\n    //     bool result = false;\n    //     for (uint256 i = 0; i < _oraclers.length; i++) {\n    //         if (_oraclers[i] == _sender) {\n    //             result = true;\n    //             break;\n    //         }\n    //     }\n    //     return result;\n        if (oracle.isRegistered(_sender) == true) return true;\n        \n        return false;\n    }\n\n    //Create a response out of an oracler's feedback\n    function createResponse(\n        address oraclerAddress,\n        bytes32 response,\n        uint256 requestId\n    ) public {\n        require(\n            senderIsValidOracler(oraclerAddress) == true,\n            \"Assigned oracler must return a response.\"\n        );\n\n        require(response.length > 0, \"Return response cannot be empty.\");\n        (bool _existance, uint256 _responseId, bool _responder) = requestHasResponse(requestId, oraclerAddress);\n        require(\n            _responder == false,\n            \"Oracler has already responded to the request.\"\n        );\n        if (!_existance) {\n            Responses storage _response = responses[nextResponseId];\n            _response.arrivalTime.push(block.timestamp);\n            _response.oraclerAddress.push(oraclerAddress);\n            _response.requestId = requestId;\n            _response.response.push(response);\n            _response.responseId = nextResponseId;\n            _response.hasOutcome = false;\n            _response.leastArrivalTime = block.timestamp;\n            responsesSet.push(_response);\n            nextResponseId++;\n        } else {\n            Responses storage _response = responses[_responseId];\n            _response.arrivalTime.push(block.timestamp);\n            responsesSet[_responseId].arrivalTime.push(block.timestamp);\n            _response.oraclerAddress.push(oraclerAddress);\n            responsesSet[_responseId].oraclerAddress.push(oraclerAddress);\n            _response.response.push(response);\n            responsesSet[_responseId].response.push(response);\n            _response.hasOutcome = false;\n            responsesSet[_responseId].hasOutcome = false;\n            if (_response.leastArrivalTime > block.timestamp) {\n                _response.leastArrivalTime = block.timestamp;\n                responsesSet[_responseId].leastArrivalTime = block.timestamp;\n            }\n        }\n\n        emit responseCreated(requestId, oraclerAddress);\n    }\n\n    //Get the first response arrival time\n    function getResponseLeastArrivalTime(uint256 _responseId)\n        public\n        view\n        returns (uint256 _leastArrivalTime)\n    {\n        Responses memory _response = responsesSet[_responseId];\n        return _response.leastArrivalTime;\n    }\n\n    //Return all the corresponding arrival times\n    function getResponsesArrivalTimes(uint256 _responseId)\n        public\n        view\n        returns (uint256[] memory times)\n    {\n        Responses memory _response = responsesSet[_responseId];\n        return _response.arrivalTime;\n    }\n\n    //Process the response and return the final outcome\n    function processResponse(uint256 _responseId) public {\n        Responses memory _response = responsesSet[_responseId];\n        uint256 _count = _response.response.length;\n        Outcome[] memory outcomes = new Outcome[](_count);\n        uint256[] memory _requestStakes =\n            request.getRequestStakes(_response.requestId);\n        uint256 _index;\n        uint256 _ones;\n        uint256 _zeros;\n        uint256 winner;\n        bool winnerStatus = true; //true 1s are winner, otherwise, 0s are winner.\n        uint256[] memory _onesIndex = new uint256[](_count);\n        uint256[] memory _zerosIndex = new uint256[](_count);\n        for (uint256 i = 0; i < _count; i++) {\n            if (\n                _response.arrivalTime[i] - _response.leastArrivalTime <=\n                timeWindow\n            ) {\n                //\n                Outcome memory _tempOutcome =\n                    Outcome(\n                        _response.arrivalTime[i],\n                        _response.response[i],\n                        _response.oraclerAddress[i],\n                        reward,\n                        _requestStakes[_index]\n                    );\n                if (outcomes[i].response == one) {\n                    _onesIndex[_ones] = i;\n                    _ones = _ones + 1;\n                } else if (outcomes[i].response == zero) {\n                    _zerosIndex[_zeros] = i;\n                    _zeros = _zeros + 1;\n                }\n                outcomes[_index] = _tempOutcome;\n            } else {\n                Outcome memory _tempOutcome =\n                    Outcome(\n                        _response.arrivalTime[i],\n                        _response.response[i],\n                        _response.oraclerAddress[i],\n                        penalty,\n                        _requestStakes[_index]\n                    );\n                outcomes[_index] = _tempOutcome;\n            }\n            _index++;\n        }\n        if (_ones >= _zeros) {\n            winner = _ones;\n            winnerStatus = true;\n            for (uint256 i = 0; i < _zeros; i++) {\n                outcomes[_zerosIndex[i]].mode = penalty;\n            }\n        } else {\n            winner = _zeros;\n            winnerStatus = false;\n            for (uint256 i = 0; i < _ones; i++) {\n                outcomes[_onesIndex[i]].mode = penalty;\n            }\n        }\n        sortResponseOutcomeByTimeArrival(outcomes);\n        applyRewardOrPenaltyOutcome(outcomes);\n        uint256 winnerIndex = getResponseMedian(winner);\n        if (winnerStatus == true) {\n            winnerIndex = _onesIndex[winnerIndex];\n        } else {\n            winnerIndex = _zerosIndex[winnerIndex];\n        }\n        // uint256 _median = getResponseMedian(winner);//_count\n        setResponseHasOutcome(\n            true,\n            _responseId,\n            outcomes[winnerIndex].response\n        ); //outcomes[_median].response\n\n        emit responseFinalized(\n            _responseId,\n            outcomes[winnerIndex].response,\n            outcomes[winnerIndex].owner\n        );\n    }\n\n    //Penalize or reward the participating oracles\n    //Changing their popularity and balance\n    //Utilize the popularity real value\n    function applyRewardOrPenaltyOutcome(Outcome[] memory outcomes) private {\n        for (uint256 i = 0; i < outcomes.length; i++) {\n            uint256 _index = oracle.oraclerMappingIndex(outcomes[i].owner);\n            uint256 _popularity = oracle.getOraclerNumericPopularity(_index);\n            uint256 _stake = outcomes[i].stake;\n            uint256 value = 1;\n            if (outcomes[i].mode == bytes32(\"R\")) {\n                value += _popularity;\n                if (value > 100) {\n                    value = 100;\n                }\n\n                oracle.increaseOraclerBalance(outcomes[i].owner, _stake);\n                oracle.changeOraclerPopularity(\n                    outcomes[i].owner,\n                    _index,\n                    mostSignificantBit(value),\n                    value\n                );\n            } else {\n                value = _popularity - value;\n                if (value < 0) {\n                    value = 0;\n                }\n \n                oracle.decreaseOraclerBalance(outcomes[i].owner, _stake);\n                oracle.changeOraclerPopularity(\n                    outcomes[i].owner,\n                    _index,\n                    mostSignificantBit(value),\n                    value\n                );\n            }\n        }\n    }\n\n\n    //Gets corresponding median value\n    function getResponseMedian(uint256 _sortedResponseSize)\n        public\n        pure\n        returns (uint256 medianValue)\n    {\n\n        uint256 _median = _sortedResponseSize / 2;\n\n        return (_median);\n    }\n\n    //Sort responses based on their arrival times\n    //Consider the array of oject\n    function sortResponseOutcomeByTimeArrival(Outcome[] memory outcome)\n        public\n        pure\n    {\n        for (uint256 i = 0; i < outcome.length; i++) {\n            Outcome memory iOutcome = outcome[i];\n            for (uint256 j = i + 1; j < outcome.length; j++) {\n                Outcome memory jOutcome = outcome[j];\n                if (iOutcome.timeArrival > jOutcome.timeArrival) {\n                    Outcome memory temp = iOutcome;\n                    outcome[i] = jOutcome;\n                    outcome[j] = temp;\n                }\n            }\n        }\n    }\n\n    \n\n    //Check the request has a response\n    //also checks whether a specific address has already reponded or not\n    function requestHasResponse(uint256 requestId, address oraclerAddress)\n        public\n        view\n        returns (\n            bool value,\n            uint256 responseId,\n            bool responder\n        )\n    {\n        require(\n            msg.sender == oraclerAddress || msg.sender == oracleManager,\n            \"Only manager or the response creator has access to it.\"\n        );\n        value = false;\n        responder = false;\n        if (responsesSet.length > 0) {\n            for (uint256 i = 0; i < responsesSet.length; i++) {\n                Responses memory _response = responsesSet[i];\n                if (_response.requestId == requestId) {\n                    value = true;\n                    responseId = _response.responseId;\n                    for (\n                        uint256 j = 0;\n                        j < _response.oraclerAddress.length;\n                        j++\n                    ) {\n                        if (_response.oraclerAddress[j] == oraclerAddress) {\n                            responder = true;\n                            break;\n                        }\n                    }\n                    break;\n                }\n            }\n        }\n        return (value, responseId, responder);\n    }\n\n    //Check wether there is such a response or not\n    // function isResponseCreated(uint256 _responseId) public view returns (bool) {\n    //     for (uint256 i = 0; i < responsesSet.length; i++) {\n    //         if (responsesSet[i].responseId == _responseId) {\n    //             return true;\n    //         }\n    //     }\n    //     return false;\n    // }\n\n    //Check wether there is such a response or not\n    // function whatIsRequestResponseId(uint256 _requestId)\n    //     public\n    //     view\n    //     returns (uint256 id)\n    // {\n    //     for (uint256 i = 0; i < responsesSet.length; i++) {\n    //         if (responsesSet[i].requestId == _requestId) {\n    //             return responsesSet[i].responseId;\n    //         }\n    //     }\n    // }\n\n\n\n    //Set the oracle final outcome for a request\n    function setResponseHasOutcome(\n        bool _hasOutcome,\n        uint256 _responseId,\n        bytes32 _outcome\n    ) private {\n        responsesSet[_responseId].outcome = _outcome;\n        responsesSet[_responseId].hasOutcome = _hasOutcome;\n    }\n\n    //Set the timewindow for receiving the responses\n    // function setResponseTimeWindow(uint256 _window) public {\n    //     require(_window > 0, \"Time window must be positive.\");\n    //     timeWindow = _window;\n    // }\n\n    //Get the response window\n    function getResponseTimeWindow() public view returns (uint256) {\n        return timeWindow;\n    }\n\n    //Control popularity\n    //It returns the most significant bit for popularity management\n    // x >>= 1 menas x = x >> 1, and '>>' menas shift.\n    //Check out https://docs.soliditylang.org/en/latest/types.html#shifts\n    function mostSignificantBit(uint256 x) public pure returns (uint256 r) {\n        require(x > 0);\n\n        if (x >= 0x100000000000000000000000000000000) {\n            x >>= 128;\n            r += 128;\n        }\n        if (x >= 0x10000000000000000) {\n            x >>= 64;\n            r += 64;\n        }\n        if (x >= 0x100000000) {\n            x >>= 32;\n            r += 32;\n        }\n        if (x >= 0x10000) {\n            x >>= 16;\n            r += 16;\n        }\n        if (x >= 0x100) {\n            x >>= 8;\n            r += 8;\n        }\n        if (x >= 0x10) {\n            x >>= 4;\n            r += 4;\n        }\n        if (x >= 0x4) {\n            x >>= 2;\n            r += 2;\n        }\n        if (x >= 0x2) r += 1; // No need to shift x anymore\n    }\n}\n",
  "sourcePath": "/mnt/storage/20_projects/50_oracle_amir/new research/aglive_oracle/contracts/Response.sol",
  "compiler": {
    "name": "solc",
    "version": "0.8.7+commit.e28d00a7.Emscripten.clang"
  },
  "schemaVersion": "3.4.2",
  "updatedAt": "2021-10-13T03:33:10.313Z",
  "devdoc": {
    "kind": "dev",
    "methods": {},
    "version": 1
  },
  "userdoc": {
    "kind": "user",
    "methods": {},
    "version": 1
  }
}